:020000040800F2
:10000000E00F0020853A00088D3A00081D14000812
:10001000913A0008933A0008953A00080000000061
:10002000000000000000000000000000973A0008F7
:10003000993A0008000000009B3A00089D3A000829
:100040009F3A00089F3A00089F3A00089F3A00082C
:10005000B71600089F3A00089F3A00089F3A000828
:100060009F3A00089F3A00089F3A00089F3A00080C
:100070009F3A00089F3A00089F3A00089F3A0008FC
:100080009F3A00089F3A00089F3A00089F3A0008EC
:100090009F3A00089F3A00089F3A00089F3A0008DC
:1000A0009F3A0008991700089F3A00089F3A0008F5
:1000B0009F3A00089F3A00089F3A00089F3A0008BC
:1000C0009F3A00089F3A00089F3A00089F3A0008AC
:1000D0009F3A0008CF190008051A00083B1A0008CB
:1000E0009F3A00089F3A00089F3A0008DFF80CD0BA
:1000F00003F08AFE0048004701010008E00F0020DD
:1001000001F073F8032001F062F801F09CF8FCE7BD
:1001100010B5044600211C2001F0FFFA01212C201B
:1001200001F0FBFA210A012001F0D6FDE1B2012025
:1001300001F0D2FD0121BDE810401C2001F0EDBA14
:10014000292000F086B9282000F083B92DE9FC5F52
:100150001F46DDE90C6B90460D460446C2F1F00ADD
:10016000C3F5A07914E0A24503DA0024E81985B2AA
:1001700003E0A94501DA00242546CDE9007B43468A
:100180002946204600F08DF904EB080084B2761C65
:100190003278002AE7D1BDE8FC9F70B5CB2000F093
:1001A00058F9392000F069F92C2000F066F9002098
:1001B00000F063F9342000F060F9022000F05DF9EE
:1001C000CF2000F046F9002000F057F9C12000F0E0
:1001D00054F9302000F051F9E82000F03AF9852078
:1001E00000F04BF9002000F048F9782000F045F9C4
:1001F000EA2000F02EF9002000F03FF9002000F086
:100200003CF9ED2000F025F9642000F036F90320D8
:1002100000F033F9122000F030F9812000F02DF9C0
:10022000F72000F016F9202000F027F9C02000F098
:1002300010F9232000F021F9C12000F00AF9102064
:1002400000F01BF9C52000F004F93E2000F015F97C
:10025000282000F012F9C72000F0FBF8862000F0FB
:100260000CF9362000F0F5F8482000F006F93A20A5
:1002700000F0EFF8552000F000F9B12000F0E9F8A7
:10028000002000F0FAF8182000F0F7F8B62000F08F
:10029000E0F8082000F0F1F8822000F0EEF82720C6
:1002A00000F0EBF8F22000F0D4F8002000F0E5F8C0
:1002B000262000F0CEF8012000F0DFF8E02000F06A
:1002C000C8F80F2000F0D9F8312000F0D6F82B2024
:1002D00000F0D3F80C2000F0D0F80E2000F0CDF89C
:1002E000082000F0CAF84E2000F0C7F8F12000F016
:1002F000C4F8372000F0C1F8072000F0BEF8102045
:1003000000F0BBF8032000F0B8F80E2000F0B5F8BC
:10031000092000F0B2F8002000F0AFF8E12000F072
:1003200098F8002000F0A9F80E2000F0A6F814209C
:1003300000F0A3F8032000F0A0F8112000F09DF8D1
:10034000072000F09AF8312000F097F8C12000F063
:1003500094F8482000F091F8082000F08EF80F2063
:1003600000F08BF80C2000F088F8312000F085F8C0
:10037000362000F082F80F2000F07FF8112000F006
:1003800068F8782001F0CEFC292000F062F8002601
:100390002A2000F05EF8002000F06FF8002000F046
:1003A0006CF82B2000F055F8002000F066F80020D3
:1003B00000F063F82C2000F04CF800244FF4963540
:1003C0003046FFF7A5FE641CAC42F9D370BD1CB5E6
:1003D0000021152001F0B0F90021322001F0ACF924
:1003E00000212C2001F0A8F900211C2001F0A4F923
:1003F0000121322001F091F90121152001F08DF940
:1004000000212C2001F089F900211C2001F085F940
:100410000021322001F081F9322001F083FC01211A
:10042000322001F07AF9782001F07CFCFFF7B5FE6C
:100430000021152001F071F948F2304156A0CDE9B4
:1004400000010021302318220846FFF77FFE1CBD63
:10045000704710B5044600211C2001F05EF9002110
:100460002C2001F05AF92146012001F035FC012130
:10047000BDE810401C2001F050B910B50446002121
:100480001C2001F04AF901212C2001F046F92146F7
:10049000012001F021FC0121BDE810401C2001F0E9
:1004A0003CB92DE9F05F203A99464FF0010803F07E
:1004B000FF0A4FFA82FB082B05D909F1070242F324
:1004C000C7084FF0080A4A460A9B00F039F82C206A
:1004D000FFF7BFFF00272EE0002628E007FB08609B
:1004E000C1B209F0FF000BF0FF02182805D00C285C
:1004F00007D0002045B2002415E002EBC200294AD3
:1005000002E002EB4200284A02EB0010405CF1E7F7
:10051000280601D50B9800E00020FFF7F9FD6800E0
:10052000641C45B264B25445F2DB761C76B2464593
:10053000D4DB7F1C7FB20A988742CDDBBDE8F09FF9
:100540002DE9F04105461E4617460C462A20FFF7C6
:1005500080FF280AFFF791FFE8B2FFF78EFF3D44C6
:100560006D1EC5F30720FFF788FFE8B2FFF785FF90
:100570002B20FFF76EFF200AFFF77FFFE0B2FFF7A7
:100580007CFF3444641EC4F30720FFF776FFE0B21B
:10059000BDE8F04171E70000467269426F78504152
:1005A0004332000018440008187A000810B550497A
:1005B000884201D12A2004E04D491031884203D1FC
:1005C0002B2001F09DF808B1002010BD012010BDC6
:1005D000F0B587B00024464E464D0294039404942F
:1005E000012306F1100705943AB141F28832B04276
:1005F00041D1914244D9AB7044E0142948D948F222
:100600003044B0420DD1287820B10020287018B1B4
:1006100039A002E00120F9E73AA030231822C821CE
:1006200021E0B84224D16878401CC0B26870032829
:1006300000D96B706978012000F08CFD6978022088
:1006400000F088FD6978032000F084FD69780420BB
:1006500000F080FD6A782EA102A803F025FC30236B
:10066000182202A8FA21CDE900040020FFF76EFD50
:10067000012007B0F0BDB84202D1914200D9EB7021
:10068000A87828B1E87818B100F09AFDAC70EC7049
:100690000020EEE71CB501212A2001F04DF80121D0
:1006A0002B2001F049F800F06BFE1C4A1C49104851
:1006B00000F08EFE0E48194A1949103000F088FEED
:1006C00048F230440FA0CDE9000430231822C8219D
:1006D0000020FFF73BFD13A0CDE9000430231822D2
:1006E000FA210020FFF732FD1CBD00F04ABE0000D9
:1006F0005C00002000000020504F5745523A4F4EFA
:1007000020000000504F5745523A4F464600000027
:1007100053504545443A253032640000AD05000889
:10072000D105000853504545443A303100000000DF
:1007300070B588B00E460446182102A803F079FA75
:10074000514952A003F0A0FB3246214651A003F0CC
:100750009BFB56A003F098FB224655A102A803F08C
:10076000A3FB48F2304502AC30231822642100205C
:10077000CDE90045FFF7EAFC324650A102A803F09C
:1007800093FB3023182296210020CDE90045FFF786
:10079000DDFC08B070BD2DE9F0434B4F8946397838
:1007A000002934D1002294462FE0484C7978835CAC
:1007B0006354491CC9B27970012904D0022906D0BA
:1007C000202908D01FE0815C42291AD11BE0815CFE
:1007D0004D2916D117E03D491E253C4C8B7FC97F22
:1007E00001EB03218EB20023194614F80180491C45
:1007F0004344C9B29BB2A942F7D3B34201D101210C
:10080000397087F801C0521C92B24A45CDD3BDE879
:10081000F0831FB54FF4165002900020ADF8000091
:10082000ADF80400ADF802002948039069460120A4
:1008300000F0FAFF0021084600F07EFF00210120B1
:1008400000F07AFF0121002000F067FF0121084637
:1008500000F063FF00210846FFF76AFF1FBD10B5D7
:10086000194C207800280ED01849487B0A7B00EBF1
:100870000220CA7B897B80B202EB012189B2FFF79B
:1008800057FF0020207010BD188C000825733A20F7
:1008900000000000706D322E35203D2025642C2094
:1008A000706D3130203D2025640000000A000000FA
:1008B000504D322E353A253033640000504D3130E2
:1008C0003A25303364000000040000207C00002042
:1008D0009707000801210F2000F02EBF10B586B049
:1008E0000F2000F00DFF0D4C2178884213D00F200F
:1008F00000F006FF2070024609A102A803F0D4FA16
:1009000048F2304102A8CDE90001302318223221FB
:100910000020FFF71BFC06B010BD00000600002001
:1009200049522070696E3A256400000010B5F849FC
:100930000246086908B9096149610C6915E0A379A3
:10094000934211D1206930B161690861D4E9040191
:10095000416100202061A06808B103F0FFFC20463F
:10096000BDE8104003F0FABC04468C422069E6D191
:1009700010BD2DE9F0471F4690460E46814603F014
:100980007FF9C5B21EB3182003F010FD04001CD07F
:10099000284603F00BFDA060002816D02A464946E1
:1009A00003F02EF92570A67000206070A4F8048072
:1009B000E060D748A771016909B900614061206111
:1009C00041690C61416961614461BDE8F087294674
:1009D0004846BDE8F04700F028BB2DE9F04393B04E
:1009E000054600244021684603F023F92946C9A0A2
:1009F00003F04AFAC84F4FF4FA79A046FA78162A5B
:100A000074D2DFE802F073730B1427343F4A556841
:100A1000747F8C97ADB8C3CE73D9E4ECBFA12846E0
:100A200003F012F9002877D0012038700AE1BBA149
:100A3000284603F009F900286ED000F0A1FB4479A4
:100A400000F09EFB02792346B5A1684603F02CFA1C
:100A5000042381E0B1A1284603F0F6F800285BD01A
:100A600005234A460321B8A0FFF783FFEAE0ABA1C4
:100A7000284603F0E9F800284ED006234A46032111
:100A8000BAA0F1E7A5A1284603F0DEF8002843D07C
:100A900007234A460321BFA0E6E7A0A1284603F0AA
:100AA000D3F8002838D008234A460321C2A0DBE748
:100AB0009AA1284603F0C8F800282DD000F082FB48
:100AC000044600F081FB02462346BEA1684603F0BF
:100AD000EBF9092340E091A1284603F0B5F800287E
:100AE0007AD00A234A460321BBA0BDE7A8E08BA128
:100AF000284603F0A9F800286ED00B234A460321AC
:100B0000B9A0B1E785A1284603F09EF8002863D07C
:100B10000C234A46032100E05EE0B9A0A4E77FA1D0
:100B2000284603F091F8002856D00D234A460321A9
:100B3000B8A099E779A1284603F086F800284BD0A1
:100B400000F01EFB447900F01BFB02792346B5A19F
:100B5000684603F0A9F90E234A460321684683E755
:100B60006EA1284603F070F8002835D00F234A46BE
:100B70000321B4A078E769A1284603F065F80028AE
:100B80002AD010234A460321B2A06DE763A128466C
:100B900003F05AF800281FD011234A460321B5A0BC
:100BA00062E75EA1284603F04FF8002814D0132313
:100BB0004A460321B3A057E758A1284603F044F85A
:100BC000002809D014234A460321B2A04CE753A1C0
:100BD000284603F039F890BB13B0BDE8F083B0A10C
:100BE000284603F031F80028F6D03D2103F03EF806
:100BF000461C11ADAC49ADA0CDF8408003F044F9DE
:100C00003146ACA003F040F9ABA003F03DF900245D
:100C100006EB440010220088ADF84000002110A827
:100C200003F035F82855641CE4B2062CF0D32846AE
:100C300000F0A8FA03234A461946A0A014E701E0F1
:100C4000002CC9D0F878FFF771FE87F80380C3E75E
:100C5000F8B5314C2E4B0025A188403B0226585454
:100C6000491C89B2A180A278012A04D0022A0CD0A2
:100C7000032A23D024E0612824D18DF8000001212B
:100C8000684600F0D2F9A6701CE0032918D1187844
:100C90002B2817D158786F2814D198786B2811D148
:100CA0000120FFF743FE15234FF4FA72032187A0BA
:100CB000FFF75FFE0320A070267003E00A2803D030
:100CC000402900D3A580F8BD11485D544038FFF796
:100CD00084FEF7E7F0B50E4B002218334FF4007690
:100CE0009D1D0FE09C88B4420AD25F88845C7C55CD
:100CF0005C88641CC4F308045C809C88641C9C8031
:100D0000521C92B28A42EDD3F0BD0348007870477E
:100D1000DC00002025730A00080000202B6F6B0008
:100D200041542B5741503D313142474E2C46726958
:100D3000426F78506163322D253032782530327819
:100D40002C4348360D00000041542B57414B455968
:100D50003D5750413250534B2C4145532C467269FC
:100D6000426F78506163320D0000000041542B4CFB
:100D7000414E4E3D3139322E3136382E3135302EFE
:100D80003235342C3235352E3235352E3235352E3E
:100D9000300D000041542B4E4554503D5443502CCF
:100DA0005345525645522C31373338302C302E3083
:100DB0002E302E300D00000041542B544350544F20
:100DC0003D300D0041542B534F434B423D54435053
:100DD0002C25642C25730D0041542B544350544F43
:100DE000423D300D0000000041542B574542553D17
:100DF000667269626F782C667269626F780D0000A6
:100E000041542B5345415243483D31373338310D1E
:100E10000000000041542B415357443D4672694243
:100E20006F780D0041542B57524D49443D4672692D
:100E3000426F78506163322D253032782530327818
:100E40000D00000041542B4E5450454E3D6F6E0D29
:100E50000000000041542B4E54505345523D636EE8
:100E60002E706F6F6C2E6E74702E6F72672C380D33
:100E70000000000041542B4E545052463D33300D7B
:100E80000000000041542B534D54534C3D61697296
:100E90000D00000041542B534D544C4B0D000000ED
:100EA0002B6F6B3D000000002D8C000825733A204D
:100EB00000000000257300000A00000041542B5779
:100EC0004D4F44453D41505354410D0041542B5723
:100ED000534D41430D00000019E710B59349AFF29F
:100EE000340002F0D1FFAFF2801002F0CDFFAFF27C
:100EF000380002F0C9FF8E490020487010BD38B597
:100F00008B4C6078002824D188490E31AFF2640000
:100F100002F0BAFFAFF2B01002F0B6FFAFF2680015
:100F200002F0B2FF012583A06570006800902B4697
:100F30004FF4FA6203216846FFF71BFDA57001B06C
:100F40000023BDE830401A464EF660217A4800F092
:100F5000D3B938BD754910B52131AFF2B00002F0F8
:100F600093FFAFF2FC1002F08FFFAFF2B40002F07B
:100F70008BFF0121BDE81040102000F0CEBB1FB553
:100F80006E48002100614061102000F0D5FB002177
:100F9000112000F0D1FB0121252000F0CDFB012123
:100FA000112000F0BAFB0121102000F0B6FB4FF435
:100FB000E130002402906248ADF800400390ADF8A3
:100FC0000440ADF802406946022000F02DFC57496C
:100FD0002B31AFF2281002F057FFAFF22C1002F0C5
:100FE00053FFAFF22C1002F04FFF51480021047064
:100FF000102000F092FB04B00023BDE810401A4618
:101000004FF416714F4800F077B910B500F026F88C
:10101000474C207828B9252000F072FB08B9012040
:101020002070BDE8104000F05BB870B50C463F4939
:1010300005462839AFF28C1002F026FF2946AFF2A0
:101040008C1002F021FFAFF2901002F01DFF22463B
:101050002946BDE87040022000F09BBC374810B51F
:101060000469844200D10024002C38D000F0E6F955
:10107000E168401AA188884231D96078A178884215
:1010800020D3206930B161690861D4E9040141616C
:1010900000202061A06808B103F060F9204603F049
:1010A0005DF92249A4791539AFF2002002F0ECFE77
:1010B000214625A002F0E8FEAFF20420BDE8104072
:1010C00002F0E2BE1A49A079C8702178A068FFF743
:1010D000ACFF00F0B3F9E0606078401C607010BDB8
:1010E00070B5164C1834A08800281DD0002000F0E0
:1010F000B1F92388A01DA2881D5C2AB15B1CC3F333
:1011000008002080521EA280012000F0A3F90848A8
:10111000C07818B12846BDE8704099E52946BDE879
:1011200070400BA002F0B0BE70BD00004D8C0008F6
:10113000080000202B2B2B00DB0E0008DC00002019
:10114000D50C0008550F00086964203D2025640077
:101150002563000001EB81018A000146012000F0B7
:1011600093BC1421012000F0A7BC704713B50122E5
:101170006946002000F00DFC00981CBD3A487047FD
:101180003A4870473EB5044638482168401E40F84A
:10119000011FA1888180344935A0083102F074FE16
:1011A000E078627921798DE80700A3786278217868
:1011B00031A002F069FEBDE83E4037A002F064BEF7
:1011C000FFF79DBE35A0704744F2E430704700F051
:1011D00038B970B5254D04466D1E2878A04202D05E
:1011E000204600F037F92C7070BD1FB500F037F9BC
:1011F0004FF4E13002900020ADF80000ADF804009B
:10120000ADF802006946039000F00EFB00F054F8C0
:10121000FFF7DDF8FFF73EFAFFF7FBFAFFF75AFB9F
:10122000FFF7ADFEFFF79DFF0F4911A0163102F049
:101230002BFE0D491DA002F027FE04B016A0BDE84C
:10124000104002F021BE10B500F024F900F080F843
:10125000FFF74BFAFFF703FBFFF740FBFFF7D5FE65
:10126000BDE81040FFF781BF838C00080F0000200D
:1012700025733A2000000000253032783A253032BC
:10128000783A253032783A253032783A253032783B
:101290003A253032780000000A0000004465762EBE
:1012A000467269426F782E636E0000007665727335
:1012B000696F6E2025730000704710B504460078F2
:1012C0004108CA0707D000F0B9F86060D4E90210FD
:1012D000BDE810400847490703D420F00100207002
:1012E000F4E74FF6FF706080F0E7002803D0017844
:1012F00021F00101017070472DE9F04116460246C8
:1013000000241E4D204605EB00173F78FF0716D03E
:10131000401C0A28F7DBCCB1C4E90223618000F04D
:101320008DF86060207866F34700207040088007E1
:1013300002D52046FFF7C1FF2046BDE8F08105EB4E
:101340000014207840F001002070E4E70020F4E76A
:1013500070B50A4E002406EB04152878C00709D0A2
:1013600000F06CF86968401A6988884202D92846FA
:10137000FFF7A3FF641C0A2CEDDB70BDFC0200200C
:1013800070472DE9F0410025DFF88C802F4658F892
:1013900025405CB100F052F806462078E16801284B
:1013A000204608D08847207001280ED06D1C052DDE
:1013B000EDDBBDE8F0818847207061680246A368D4
:1013C000711A204698470028F0D067706660EDE7F4
:1013D00030B5114C002354F8235025B15B1C052B6C
:1013E000F9DB002030BD44F8230000234370037074
:1013F0004360C0E90212012030BD10B50021064A49
:101400000B4652F82140844201D142F82130491C58
:101410000529F6DB10BD00009C030020002459497B
:1014200059A002F031FD59A002F02EFD58A002F0A3
:101430002BFD641CE4B20A2CF1D3FEE7554840684A
:101440007047544940000870704752484168491C31
:101450004160704708B162B6704772B6704710B508
:1014600002F072FB00F04DF800F07FF900F094F804
:1014700000F020FA00F0A1F900F07EFB00F0AFFBD5
:101480000021232000F058F90021BDE8104023205E
:1014900000F043B910B500F07BFA00F067F900F0F6
:1014A000C0F900F018FC00F078F8BDE81040AFF388
:1014B000008010B5374C60782178884213D2D4E987
:1014C0000101401AC8281BD9232000F019F940B1A6
:1014D0000021232000F021F96068A0606078401CA2
:1014E0000DE00121F5E70121232000F016F9D4E9F0
:1014F0000101401A40F2DC51884201D9002060709D
:1015000010BD10B50121084601F01EFA012104208A
:1015100001F023FA0121082001F01FFA0121102017
:1015200001F01BFA0121202001F017FA01218C03A0
:10153000204601F012FA0121480401F017FA0121B6
:10154000880401F013FA0121084601F006FA01218E
:10155000C80201F002FA0121084601F007FA012150
:10156000022001F003FA0121042001F0FFF901211A
:10157000080301F0F2F92046BDE81040012101F016
:10158000F5B90000A78C000825733A200000000080
:101590000A00000018000020704770472DE9F04154
:1015A00017460C46064600F072FD342000F07FFF1F
:1015B0005CB3BD0827E04FF0000113D107F0030032
:1015C000012803D0022801D0032814D1401E12D4D0
:1015D000225C0A431146012801DD1102F6E7C20030
:1015E0009140F3E70320225C401E0A4311020128C8
:1015F000F9DA207801433046241D00F020FE04284B
:1016000000D1361D6D1E002DD5DCBDE8F04100F087
:101610004ABD2DE9F043ADF2044D0D4606460024C7
:10162000C2F38727C2F309094FF480680DE005EB88
:1016300084214246684602F0E3FA06EB84204246E3
:101640006946FFF7ABFF641CE4B2BC42EFD3B9F1CB
:10165000000F11D0FF2247464146684602F0E2FAE9
:1016600005EB84214A46684602F0CAFA06EB84205C
:101670003A466946FFF792FF0DF2044DBDE8F0834C
:1016800070B5054600F003FD0024342000F00FFF84
:10169000284600F036FD042803D0641CE4B20A2C6E
:1016A000F3D3BDE8704000F0FEBC0B46014618467F
:1016B00092B202F0A5BA024902A002F0E5BB000016
:1016C000B98C0008257320456E7472792121210A96
:1016D000000000000009062810D2DFE800F0030532
:1016E00007090B0D25487047254870472548704766
:1016F000254870472548704725487047254870475A
:1017000070B5054600F033F804462846FFF7E2FFBF
:101710002146BDE8704000F08EBF70B50C4606460D
:1017200000F025F805463046FFF7D4FF224629464B
:10173000BDE8704000F097BF38B50D4604465F28FD
:1017400010D800F014F8ADF8000003208DF8020066
:101750004DB148208DF803002046FFF7BBFF6946D6
:1017600000F013FF38BD1020F4E77047704700F019
:101770000F000121814088B270470000000801403D
:10178000000C01400010014000140140001801400D
:10179000001C01400020014010B5224C01212046D0
:1017A00001F0C3FF002807D00121204601F0D3FF3C
:1017B000BDE81040FFF749BE10BD7FB540F2E330F1
:1017C000ADF8000047200024ADF80400154DADF839
:1017D0000240ADF806408DF808406946284601F001
:1017E000DDFA4FF4C06000F0FDFA19218DF80C10FD
:1017F00001208DF80F008DF80D4002208DF80E00AD
:1018000003A800F0F4FA0121284601F0A4FF012208
:101810001146284601F07FFD0121284601F066FDB2
:101820007FBD7047002C01407FB506460C466846D8
:1018300002F017F8CEB3012E3AD0022E34D18C4DDF
:101840008C4800EB061194E84D0081E84D00002122
:10185000284602F026F840F2255600223146284656
:1018600002F029F8A06800906088ADF80400208894
:10187000ADF808000020ADF806000C20ADF80A0015
:10188000A088ADF80C006946284601F097FF314664
:10189000284602F0E6F801223146284602F00BF80D
:1018A0000121284601F0FDFF7FBDFFE7724DC7E72C
:1018B000724DC5E72DE9FC414FF4C06000F092FA8B
:1018C00025208DF8040000258DF8055001248DF8A1
:1018D00006408DF8074001A800F089FA26208DF80F
:1018E00004008DF805508DF806408DF8074001A8DA
:1018F00000F07DFA27208DF804008DF805508DF852
:1019000006408DF8074001A800F071FA6002ADF8BA
:1019100000001825DFF868818DF8035003268DF844
:1019200002606946404600F030FEA702ADF8007044
:1019300004248DF803406946404600F026FEADF8C9
:1019400000408DF803508DF802606946404600F073
:101950001CFE0820ADF800008DF8034069464046A3
:1019600000F013FEADF800708DF80350454D8DF872
:1019700002606946284600F008FE6102ADF80010DA
:101980008DF803406946284600F0FFFDBDE8FC8164
:1019900070472DE9F04116460F4620B1012804D0CA
:1019A000334D00240FE0344DFBE7344DF9E7395D4A
:1019B000284601F0CCFF4021284602F029F80028F3
:1019C000F9D0641CA4B2B442F1D3BDE8F08138B5BB
:1019D000294C40F225552946204602F023F80028DC
:1019E0000FD02946204602F03CF8204601F0B3FF14
:1019F0008DF800001F48C268002A02D00121684605
:101A0000904738BD38B51D4C40F225552946204633
:101A100002F008F800280FD02946204602F021F8ED
:101A2000204601F098FF8DF800001248C269002A94
:101A300002D001216846904738BD38B50C4C40F2C1
:101A400025552946204601F0EDFF00280FD02946F4
:101A5000204602F006F8204601F07DFF8DF80000D8
:101A60000448C26A002A02D001216846904738BD66
:101A700000480040B003002000380140004400400E
:101A800000080140000C0140012814D145480129FB
:101A900008D0022909D003290AD004290BD1114604
:101AA00001F02BBE114601F022BE114601F021BE0D
:101AB000114601F020BE70472DE9F04188B00C4678
:101AC000012856D16320ADF814004720ADF810006E
:101AD0000020DFF8D080ADF81600ADF812008DF8C8
:101AE000180004A9404601F059F90121404601F0CF
:101AF00032FE00220121404601F00DFC6025ADF8C8
:101B0000005001260227ADF80260ADF80640ADF89E
:101B100008706946404601F07AF9ADF80050ADF81A
:101B20000260ADF80640ADF808706946404601F025
:101B3000A3F9ADF80050ADF80260ADF80640ADF87D
:101B400008706946404601F0D3F9ADF80050ADF891
:101B50000260ADF80640ADF808706946404601F0F5
:101B600001FA0121404601F0C1FB0121404601F08C
:101B7000C7FB08B0BDE8F08108B501210A4800F0B4
:101B80008FFD4FF47070ADF8000018208DF8030041
:101B900003208DF802006946044800F0F6FC08BDF9
:101BA0007047000000040040000C1A0000100140C3
:101BB00070B5574A5066D165554C012158342046BE
:101BC00000F0FFF94FF40035284600F012FA002823
:101BD000FAD02046BDE87040002100F0F2B92DE9AE
:101BE000F04792B0E020ADF8400003258DF8425058
:101BF00018268DF8436010A9464800F0C6FC002462
:101C0000DFF814A1ADF800404FF48277ADF804403E
:101C1000ADF808404FF40078ADF80C404FF00709DC
:101C2000ADF80270ADF80640ADF80A80ADF80E4090
:101C3000ADF810906946504600F002FF0121504671
:101C400000F07AFF4FF46040ADF840008DF842504C
:101C50008DF8436010A9314800F097FC304DADF885
:101C60000040ADF80440ADF80840ADF80C40ADF8C8
:101C70000270ADF80640ADF80A80ADF80E40ADF840
:101C800010906946284600F0DBFE214E583630465B
:101C900000F000F9224805A90C30CDE90504102018
:101CA000CDE907048020CDE909400B944FF4405062
:101CB0000C94CDE90D4030460F9400F058F9012204
:101CC0000221284600F058FF0121284600F034FF89
:101CD00012B0BDE8F087704770B50D46A8B1104C42
:101CE0000221204600F094FF0028F9D02946204622
:101CF00000F04AFF0121204600F08AFF0028F9D0B9
:101D0000204600F043FFC0B270BD034CE8E700007E
:101D1000000002400008014000300140000C01407A
:101D200000380040FEB5054600244FF080462146AD
:101D3000304601F0DBFA4720ADF8040040F2E7300E
:101D4000ADF800000020ADF80600ADF802008DF8F7
:101D500008006946304601F021F80121304601F0C3
:101D6000FAFC0121304601F0C1FA08E0318A304620
:101D7000C90704D0012101F0EEFC641CA4B2AC42FE
:101D8000F4D3FEBDFEB5054600244FF08046214643
:101D9000304601F0ABFA4720ADF804000020ADF862
:101DA0000000ADF80600ADF802008DF808006946A5
:101DB000304600F0F3FF0121304601F0CCFC012158
:101DC000304601F093FA08E0318A3046C90704D062
:101DD000012101F0C0FC641CA4B2AC42F4D3FEBDEE
:101DE000704770472849084328490860704730B554
:101DF0000F23C27801780125F2B1244A126801F15B
:101E0000E02102F4E062C2F5E062120AC2F10404C9
:101E1000D3404278A24084781C401443220181F8C8
:101E20000024007800F01F018D404009800000F17F
:101E3000E020C0F8005130BD01F01F008540480986
:101E4000800000F1E020C0F8805130BD104A114000
:101E500001430E48001F016070470C4A121D002903
:101E6000116801D0014300E08143116070474FF0D9
:101E7000E0210428086903D020F0040008617047BD
:101E800040F00400FAE700000000FA050CED00E065
:101E900080FFFF1F01684FF6FE72114001600021B4
:101EA000016041608160C1606A496A4A08399042B4
:101EB00003D1486840F00F0006E0664A14329042B1
:101EC00004D1486840F0F00048607047614A283209
:101ED000904203D1486840F47060F5E75D4A3C32B7
:101EE000904203D1486840F47040EDE7594A5032BF
:101EF000904203D1486840F47020E5E7554A6432C7
:101F0000904203D1486840F47000DDE7514A7832CE
:101F1000904203D1486840F07060D5E74E4A111FE7
:101F2000904203D1086840F00F0006E04A4A14329C
:101F3000904204D1086840F0F00008607047464ABB
:101F40002832904203D1086840F47060F5E7424AB5
:101F50003C32904203D1086840F47040EDE73E4ABD
:101F600050329042EAD1086840F47020E5E730B57D
:101F7000026847F6F0739A430C6A8B682343D1E9F1
:101F800004452C4323438C692343CC6923434C6A87
:101F900023438C6A234313430360CA6842600A6880
:101FA00082604968C16030BD00210160416081608C
:101FB000C160016141618161C1610162416281620F
:101FC00070470029016802D041F0010102E04FF69C
:101FD000FE72114001607047002A026801D00A4376
:101FE00000E08A430260704741607047406880B2F9
:101FF000704702460020D10002D51749083901E098
:10200000144908390968114200D001207047C10005
:1020100003D51149091F086070470E490839486007
:10202000704702460020D10002D50B49083901E073
:10203000084908390968114200D001207047C100E1
:1020400003D50549091F08607047024908394860EF
:10205000704700000800024008040240FD4A116871
:1020600001F03801014311607047FA490A6822F013
:1020700008020A600A6802430A607047F5490A6864
:1020800022F010020A600A6802430A607047F148B1
:10209000F1494160F14941607047EE48EE494160C5
:1020A000EE4941607047EB48016941F080010161F0
:1020B0007047E848016941F0800101617047E549D6
:1020C0000420CA68D20701D001207047CA685207AD
:1020D00001D502207047C968C906FBD503207047A7
:1020E00000B50346FFF7EBFF02E0FFF7E8FF5B1EDA
:1020F000012803D0002B00D1052000BD002BF4D116
:10210000FAE770B505464FF430263046FFF7E8FF92
:10211000042811D1CF4C206940F002002061656194
:10212000206940F0400020613046FFF7D9FF216967
:1021300041F6FD721140216170BD30B54FF430257C
:102140002846FFF7CDFF042810D1C24C206940F08B
:1021500004002061206940F0400020612846FFF71C
:10216000BFFF216941F6FB721140216130BD00B50E
:102170000346FFF7A4FF02E0FFF7A1FF5B1E012863
:1021800003D0002B00D1052000BD002BF4D1FAE7CD
:1021900030B54FF430252846FFF7E9FF042810D169
:1021A000AC4C206940F004002061206940F0400000
:1021B00020612846FFF7DBFF216941F6FB721140E1
:1021C000216130BDA3490020C969890700D50120DC
:1021D000704770B5A525FFF7F5FF00B100254FF456
:1021E00030263046FFF77CFF042827D1994C9A48C7
:1021F000A0609A48A060206940F02000206120691A
:1022000040F0400020613046FFF76AFF41F6EF766C
:1022100004280ED1206941F6DF7108402061206951
:1022200040F0100020618E4805804FF40050FFF709
:1022300057FF052802D021693140216170BDF8B5F2
:10224000064600204FF4005C00900D466046FFF704
:1022500047FF042816D17F4C206940F0010020611F
:1022600035806046FFF73CFF41F6FE77042806D133
:10227000B61C280C009630806046FFF731FF2169BC
:1022800039402161F8BDF0B506464FF400570D46C0
:102290003846FFF725FF04280CD16E4C206940F02A
:1022A0000100206135803846FFF71AFF2169BA1E08
:1022B00011402161F0BDF0B506464FF400570D46C0
:1022C0003846FFF70DFF042813D1624C6248A06026
:1022D0006248A060206940F01000206135803846D7
:1022E000FFF7FEFE052804D0216941F6EF72114088
:1022F0002161F0BD2DE9F041C043C7B2C0F307260C
:10230000C0F30745040E4FF400584046FFF7E8FEBF
:1023100004283CD1DFF83CC14F49CCF808104F49A4
:10232000CCF80810DCF8101041F01001CCF81010B7
:10233000FF2F07D04A48083007804046FFF7D0FEFD
:1023400004281BD1FF2E07D045480A30068040469E
:10235000FFF7C6FE042811D1FF2D07D040480C30EE
:1023600005804046FFF7BCFE042807D1FF2C07D0AC
:102370003B480E3004804046FFF7B2FE052806D0E9
:10238000DCF8101041F6EF721140CCF81010BDE8E7
:10239000F08170B505464FF430263046FFF7A0FEB9
:1023A000042818D12B4C2C48A0602C48A060206930
:1023B00040F020002061206940F04000206130465C
:1023C000FFF78EFE41F6DF71042805D0052802D004
:1023D00022690A40226170BD20690840206120699D
:1023E00040F0100020611E480DB1002100E0A52141
:1023F00001803046FFF774FE0528ECD0216941F6D4
:10240000EF721140216170BDF0B5124C07461248C1
:1024100016460D46A0601148A0604FF4005C60466F
:10242000FFF75EFE042814D1206940F010002061FF
:1024300035430B493D43891C45F0F8000880604650
:10244000FFF74EFE052804D0216941F6EF721140D6
:102450002161F0BD0020024023016745AB89EFCD2B
:1024600000F8FF1F1C48C069800870471A48006ABE
:102470007047194900200968890600D50120704776
:10248000154A0029116901D0014300E0814311611F
:10249000704701460020104A012903D0D2680A4241
:1024A00003D17047D169C907FBD0012070470A49A1
:1024B000C860704708490420CA68D20701D00120CB
:1024C0007047CA68520701D502207047C968C9061B
:1024D000FBD5032070470000002002408F4910B553
:1024E000884206D10121042000F049FA002104208D
:1024F0003BE08B49884206D10121082000F03FFAD9
:102500000021082031E08749884206D101211020AE
:1025100000F035FA0021102027E08349884206D1D7
:102520000121202000F02BFA002120201DE07F490E
:10253000884206D10121402000F021FA00214020EC
:1025400013E07B49884206D10121802000F017FA70
:102550000021802009E0774988420AD184150121B1
:10256000204600F00CFA00212046BDE8104000F0A3
:1025700006BA10BD10B50121084600F000FA00218E
:10258000BDE81040012000F0FAB9F0B5CC78002287
:1025900004F00F03E40601D58C7823430C784FF048
:1025A0000F0C14F0FF0F4FF0010E1BD005680E88C2
:1025B0000EFA02F42640A64210D196000CFA06F755
:1025C00025EA070703FA06F5CE783D43282E02D008
:1025D000482E02D002E0446100E00461521C082A47
:1025E000E5D305600A88FF2A1CD94468002202F15D
:1025F00008060EFA06F50E882E40AE420ED1960061
:102600000CFA06F7BC4303FA06F7CE783C43282EB3
:1026100000D14561CE78482E00D10561521C082AB0
:10262000E5D34460F0BD4FF6FF7101800221817057
:102630000421C17070470246002092680A4200D00F
:1026400001207047806880B2704702460020D2683F
:102650000A4200D001207047C06880B27047016113
:102660007047416170470AB101617047416170472D
:10267000C160704741F48032826181618261816909
:10268000806970472C4B10B51A684FF68074224051
:1026900042EA00100843186010BD2849C86170471D
:1026A000F0B5254C002801DAE36900E06368450DC8
:1026B0002E0185B2C0F30157B540C0F30342032F8A
:1026C00005D0C6020AD503269640B34307E023F09F
:1026D0007062636823F07063636002E0AB4343F0B1
:1026E000706201B12A43002801DAE261F0BD626044
:1026F000F0BD10B58A0721F003040F49120F2144E1
:102700000F238C6893409C438C608B6890400343FC
:102710008B6010BD0949C1F8DC007047000801401A
:10272000000C01400010014000140140001801405D
:10273000001C014000200140000001400000204238
:10274000A548016841F0010101604168A34A1140B8
:1027500041600168A24A11400160016821F48021B2
:102760000160416821F4FE0141604FF41F01816066
:10277000704799490A6822F480320A600A6822F494
:1027800080220A60B0F5803F07D0B0F5802F03D1DA
:10279000086840F4A02008607047086840F4803062
:1027A000F9E70346002059098B4A01290AD002297A
:1027B0000AD0516A03F01F02012393400B4200D05C
:1027C000012070471168F5E7116AF3E718B500209A
:1027D0004FF4A06400903120FFF7E3FF0099491CFB
:1027E0000091A14201D00028F5D03120FFF7D9FF98
:1027F000002800D0012018BD774A116821F0F801A7
:1028000041EAC00010607047764908607047724B1B
:102810005A68084322F47C1210435860704771498B
:10282000086670476C4A516821F00301014351600A
:1028300070476948406800F00C007047664A51686C
:1028400021F0F001014351607047634A516821F45F
:10285000E0610143516070475F4A516821F4605163
:1028600041EAC000506070475B4A0029517A01D0AC
:10287000014300E08143517270475A49C1F8D800C2
:102880007047554A516821F44041014351607047F7
:102890005149002281F8202081F82020012802D00F
:1028A000042802D1052081F8200070474E490860B5
:1028B000704749490A6A02430A6270474A494439E3
:1028C0000860704730B5444A5168484B11F00C011C
:1028D00003D0042901D0082901D0036012E0516817
:1028E000536801F470114FF0020413F4803F04EBBD
:1028F000914102D053689B0301D53D4B00E03B4B17
:102900005943016051680F2303EA1111394B5C5C94
:102910000168E14041605468072505EA14241C5D04
:1029200021FA04F48460546805EAD4241B5DD9407C
:10293000C1605268032303EA92322E4B1B1F9A5C3C
:10294000B1FBF2F1016130BD234A0029516901D088
:10295000014300E08143516170471F4A002991699A
:1029600001D0014300E08143916170471A4A002978
:10297000D16901D0014300E08143D1617047164A1B
:102980000029D16801D0014300E08143D160704744
:10299000114A0029116901D0014300E0814311610E
:1029A000704711494039086070470E49C864704744
:1029B0000949C87170470848416A41F08071416215
:1029C0007047054A0146002092680A4200D0012063
:1029D0007047014988727047001002400000FFF8FC
:1029E000FFFFF6FE000042428004424200127A00DD
:1029F00000093D0028000020994910B588420AD1FD
:102A0000841401212046FFF7BAFF2046BDE810409C
:102A10000021FFF7B4BF9349884202D10121041479
:102A200004E0914988420AD10121C4132046FFF7EE
:102A3000AFFF2046BDE810400021FFF7A9BF10BD41
:102A400030B502884C8802F441530A88CD8822436D
:102A50008C882C4322430C8922434C8922438C8945
:102A60002243CC8922431A430280828B22F40062E3
:102A70008283098A018230BDF0B505460C460220EA
:102A80000021AA8B85B001264FF240031A40AA8389
:102A90002884AF8BA268022A21D0A08800B1022628
:102AA0006846FFF70FFFE1880098B1F5007F2CD052
:102AB0007101B0FBF1F000EB8000A1684000B0FBB9
:102AC000F1F0401D80B20A21B0FBF1F000F00101ED
:102AD000401A4FF6FF72C0F34F0002EA0121821E36
:102AE000FE2A01D302200021E288084302432A84FF
:102AF00020886188A2890843A1881143084338438C
:102B000040F40060A88305B0F0BD000AD3E70021BF
:102B1000018041808180C180018141818181C181A9
:102B20000721018270470021018041808180C1809E
:102B300002228260818170470029018802D041F021
:102B4000400101E021F04001018070470029818BA4
:102B500002D041F4806101E021F4806181837047FB
:102B6000090901238B40002A828899B201D00A43C7
:102B700000E08A4382807047002A828801D00A439D
:102B800000E08A4382807047818170478089704766
:102B9000A1F57E420188FF3A02D041F4807101E044
:102BA00021F48071018070470029818802D041F0B2
:102BB000040101E021F0040181807047028822F4C1
:102BC0000062028002880A4302807047018841F453
:102BD0008051018070470029018802D041F40051E2
:102BE00001E021F4005101807047012901D0008BE0
:102BF0007047808A7047008A7047B1F5804F01881E
:102C000003D021F480410180704741F48041FAE70C
:102C10000246002012890A4200D001207047C943B1
:102C20000181704730B501F00F030125024605FA16
:102C300003F40020A3B2090905FA01F49188A4B2B3
:102C4000128921401A4202D0002900D0012030BD53
:102C500001F00F0201219140C9430181704700003A
:102C60000030014000380040003C0040F94910B5F8
:102C7000884202D10121C41486E0B0F1804F09D00E
:102C8000F54988420DD101210220FFF781FE002184
:102C9000022064E001210846FFF77AFE00210120AE
:102CA0005DE0EE49884206D101210420FFF770FE65
:102CB0000021042053E0EA49884206D1012108207E
:102CC000FFF766FE0021082049E0E649884206D168
:102CD00001211020FFF75CFE002110203FE0E249B7
:102CE000884206D101212020FFF752FE002120203A
:102CF00035E0DE49884202D10121441444E0DC4938
:102D0000884202D10121CC043EE0DA49884202D156
:102D100001210C0538E0D849884202D101214C0537
:102D200032E0D649884206D101214020FFF730FE2B
:102D30000021402013E0D249884206D101218020A1
:102D4000FFF726FE0021802009E0CE4988420AD103
:102D5000841501212046FFF71BFE00212046BDE817
:102D60001040FFF715BEC849884202D101210C046A
:102D70000AE0C649884202D101214C0404E0C4495A
:102D800088420AD101218C042046FFF7F8FD204635
:102D9000BDE810400021FFF7F2BD10BD30B502883C
:102DA000AC4CB24DA0420DD0A8420BD0B0F1804F38
:102DB00008D0A94B984205D0A84B984202D0A84B06
:102DC000984203D122F070034A881A43A54B9842D7
:102DD00006D0A54B984203D022F44073CA881A4308
:102DE00002808A8882850A880285A0420AD0A84289
:102DF00008D0A54A904205D0A44A904202D0A44AE5
:102E0000904201D1097A01860121818230BD30B51D
:102E1000028C22F001020284028C8388048B22F04F
:102E2000020224F073050C882C430D8915434A884F
:102E30002A43884DA8420BD08C4DA84208D0924D11
:102E4000A84205D0914DA84202D0914DA8420DD183
:102E500022F008054A8923F440732A4322F004052E
:102E60008A882A438D891D43CB892B438380048321
:102E7000C9888186028430BD70B5028C22F01002B0
:102E80000284028C8388048B0D8824F4E6464FF676
:102E9000FF7404EA052535430E8922F0200204EA76
:102EA000061616434A8804EA02123243694EB042BB
:102EB00002D06E4EB04215D122F080064A8923F42A
:102EC000406304EA0212324322F040068A8804EA90
:102ED000021232438E8904EA86061E43CB8904EA35
:102EE0008303334383800583C9880187028470BDCF
:102EF00070B5028C22F480720284028C8388848BE9
:102F00000D8824F0730425430E894FF6FF7422F4D4
:102F1000007204EA062616434A8804EA0222324373
:102F20004C4EB04202D0514EB04215D122F4006650
:102F30004A8923F4405304EA0222324322F4806691
:102F40008A8804EA022232438E8904EA06161E4366
:102F5000CB8904EA0313334383808583C98881873F
:102F6000028470BD70B5028C22F480520284058CFC
:102F70008288838B0C8823F4E6464FF6FF7303EABE
:102F80000424344325F400560D8903EA05353543FE
:102F90004E8803EA06362E432E4DA84202D0334D0A
:102FA000A84205D122F480458A8903EA82122A4385
:102FB00082808483C988A0F84010068470BD828B0B
:102FC00022F440628283828B4FF6FF7303EA012171
:102FD0000A4382837047828B22F00C028283828BA9
:102FE0000A4382837047028B22F440620283028B81
:102FF0004FF6FF7303EA01210A4302837047F0B5DD
:10300000048C24F010040484078B048C4FF6FF75A5
:1030100027F4734705EA03333B4305EA02221A43C8
:103020000C4B05EA011698420ED0104B98420BD07B
:10303000B0F1804F08D0084B984205D0074B98421A
:1030400002D0074B984225D124F02001314341F0B2
:10305000100124E0002C0140000400400008004062
:10306000000C0040001000400014004000340140FB
:10307000004C014000500140005401400018004045
:10308000001C00400020004000400140004401407E
:103090000048014024F0A0030B4343F010010283D9
:1030A0000184F0BD028B22F00C020283028B0A43E2
:1030B0000283704770B5048C24F001040484058BEE
:1030C000048C4FF6FF7606EA0313134325F0F3054D
:1030D000F84A2B4390420ED0F74A90420BD0B0F101
:1030E000804F08D0F54A904205D0F54A904202D070
:1030F000F44A904202D124F0020201E024F00A02D4
:103100000A4342F001010383018470BD2DE9F84FA9
:103110000D4604460888E74FDFF89CC3DFF89C8320
:10312000DFF89C934988AA882B894FF0804A48B3DE
:1031300004282FD04FF6FF760828934632D0208CF3
:103140009E4620F480502084A38B208C06EA013216
:10315000009223F4734306EA0B221A4306EA0E3365
:103160001343BC420AD0644508D0544506D04445B8
:1031700004D04C4502D0D34A944242D120F40050AE
:10318000009940E02046FFF795FFE9882046BDE81A
:10319000F84F87E72046FFF732FFE9882046BDE871
:1031A000F84F20E7208C20F480702084B4F81CE0D5
:1031B000208C06EA031306EA01222EF0F30E43EAFE
:1031C0000B0343EA0E030092BC420AD0644508D0C8
:1031D000544506D0444504D04C4502D0B94A9442E7
:1031E00003D120F40070009901E020F4206008432E
:1031F00040F48070A3832084E9882046BDE8F84F1E
:10320000E9E620F40240084340F48050A383208480
:10321000E9882046BDE8F84FD1E62DE9F0410C469B
:10322000002649880746012501B90226A288012AFD
:1032300000D10225208823890028384610D0FFF7C6
:10324000DEFEE1883846FFF7CEFE23892A46314666
:103250003846FFF72FFFE1883846BDE8F04121E707
:10326000FFF728FFE1883846FFF71CFF23892A462D
:1032700031463846FFF7C3FEE1883846BDE8F041E5
:10328000B1E610B50A884B88CC881A438B88234353
:103290001A430B891A434B8989891A430A43A0F8B8
:1032A000442010BD4FF6FF71818000210180C18054
:1032B0004180017270470021018041808180C1807E
:1032C000018141818181C18170470021018041805C
:1032D00001228280C18001817047002101804180EC
:1032E0008180C180018141818181704700290188ED
:1032F00002D041F0010101E021F00101018070479D
:10330000002930F8441F02D041F4004101E0C1F32C
:103310000E0101807047002A828901D00A4300E033
:103320008A4382817047818270471143A0F8481018
:103330007047002A828901D00A4300E08A438281D3
:103340007047018921F0070101817047028922F04D
:1033500070020A430281704700B50346FFF7F6FF8B
:10336000188940F00700188100BD70B516460D465B
:10337000602904464FF0010231460AD0FFF79AFE59
:1033800029462046FFF7E2FF208940F00700208110
:1033900070BDFFF734FEF3E730B504894FF6FF75D3
:1033A00005EA03231343E4B20B432343038130BDF7
:1033B00010B50446FFF7F0FF208940F07700208128
:1033C00010BD10B50446FFF7E7FF208940F48040A8
:1033D000208110BD018582827047028822F0700230
:1033E0000A430280704770B50589048B068C25F06E
:1033F00007050D434FF6FC410C4040F201110C4310
:103400004FF6FF7101EA031126F022061143314302
:1034100005810483018470BD028B22F070020A438F
:1034200002837047028B4FF6FF7322F4E04203EAF7
:103430000121114301837047828B22F070020A43FD
:1034400082837047828B4FF6FF7322F4E04203EAD7
:1034500001211143818370470029018802D041F086
:10346000800101E021F080010180704700298188FE
:1034700002D041F0040101E021F004018180704795
:103480000029818802D041F0080101E021F0080103
:10349000818070470029818802D041F0010101E05C
:1034A00021F0010181807047028B22F008020A435B
:1034B00002837047002C01400034014000040040AA
:1034C00000080040000C0040028B4FF6FF7322F40E
:1034D000006203EA012111430183EAE7828B22F0B3
:1034E00008020A438283E4E7828B4FF6FF7322F4DB
:1034F000006203EA012111438183DAE7028B22F0A3
:1035000004020A430283D4E7028B4FF6FF7322F4CE
:10351000806203EA012111430183CAE7828B22F012
:1035200004020A438283C4E7828B4FF6FF7322F4BE
:10353000806203EA012111438183BAE7028B22F002
:1035400080020A430283B4E7028B4FF6FF73C2F393
:103550000E0203EA012111430183AAE7828B22F0C4
:1035600080020A438283A4E7828B4FF6FF73C2F383
:103570000E0203EA0121114381839AE7028C22F0B3
:1035800002020A43028494E7028C22F008020A43F2
:1035900002848EE7028C4FF6FF7322F0200203EACA
:1035A00001111143018484E7028C4FF6FF7322F06E
:1035B000800203EA0111114301847AE7028C4FF67D
:1035C000FF7322F4007203EA01211143018470E7C2
:1035D000028C4FF6FF7322F4006203EA01211143CB
:1035E000018466E7028C4FF6FF7322F4005203EA6F
:1035F0000131114301845CE710B50123048C8B4039
:103600009C430484038C8A401343038410BD10B58B
:103610000423048C8B409C430484038C8A40134312
:10362000038410BD30B50124058C00F118038C40D3
:10363000A543058489B108290FD0091FC1F34E00A5
:103640001844016821F4E041016001684FF6FF73FE
:1036500003EA02221143016030BD03EB510001680F
:1036600021F0700101600168F4E70029018802D0AF
:1036700041F0020101E021F00201018019E7002977
:10368000018802D041F0040101E021F00401018031
:103690000FE70029818802D041F0800101E021F08C
:1036A0008001818005E7028822F0080202800288FA
:1036B0000A430280FDE6828822F0700282808288BE
:1036C0000A438280F5E6028922F00702028102891C
:1036D0000A430281EDE6028922F08002028102891A
:1036E0000A430281E5E68184E3E68185E1E681869D
:1036F000DFE60187DDE68187DBE6A0F84010D8E64B
:10370000028822F44072028002880A430280D0E6D6
:10371000808ECEE6008FCCE6808FCAE6B0F84000FF
:10372000C7E6808CC5E6008DC3E602460020128AFB
:103730000A4200D00120BCE6C9430182B9E6024634
:103740000020138A92890B4202EA010202D0002A69
:1037500000D00120ADE6C9430182AAE6C44910B5F4
:1037600088420AD101218C032046FFF708F9204640
:10377000BDE810400021FFF702B9BE49884202D1DE
:1037800001214C0410E0BC49884202D101218C0483
:103790000AE0BA49884202D10121CC0404E0B849C8
:1037A00088420AD101210C052046FFF7F1F8204696
:1037B000BDE810400021FFF7EBB810BD30B504465E
:1037C000008A85B00D464CF6FF710840E988014338
:1037D0002182A0894EF6F3110840A9882A89114355
:1037E0006A8902431143A181A08A4FF6FF41084034
:1037F000A9890143A1826846FFF764F89C48844286
:1038000001D1039800E00298A189090400EBC001EE
:1038100001EB0010296801D5490000E08900B0FBE8
:10382000F1F06422B0FBF2F109010B096FF0180509
:103830006B4300EB8300A3891D044FF0320306D5D0
:1038400003EBC000B0FBF2F000F0070005E003EB73
:103850000010B0FBF2F000F00F000843208105B02B
:1038600030BD4FF41651016000218180C18001817B
:103870000C2242818181704710B5028A4FF2FF030A
:103880001A400B884C8823438C88C9880C432343F7
:103890001343038210BD0021018041808180C180DB
:1038A00070470029818902D041F4005101E021F4E0
:1038B00000518181704710B5C1F3421301F01F041C
:1038C0000121A140012B07D0022B07D01430002A80
:1038D000026805D00A4304E00C30F8E71030F6E740
:1038E0008A43026010BD002A828A01D00A4300E0A8
:1038F0008A4382827047028A22F00F020282028A81
:103900000A4302827047828922F40062828182899E
:103910000A43828170470029818902D041F0020167
:1039200001E021F0020181817047028A22F0200229
:103930000282028A0A43028270470029018A02D069
:1039400041F4804101E021F4804101827047C1F3DC
:103950000801818070478088C0F308007047818922
:1039600041F0010181817047028BD2B20283028B48
:1039700042EA012101837047028B02F47F420283F5
:10398000028B0A43028370470029818A02D041F0EA
:10399000200101E021F02001818270470029818A05
:1039A00002D041F0100101E021F010018182704746
:1039B0000029818A02D041F0080101E021F00801CC
:1039C000818270470029818902D041F4004101E0E1
:1039D000C1F30E01818170470029818A02D041F430
:1039E000006101E021F4006181827047828A22F047
:1039F00004028282828A0A43828270470029818A75
:103A000002D041F0020101E021F002018182704701
:103A10000246002012880A4200D001207047C943A4
:103A20000180704770B501F01F0501260024C1F325
:103A3000421306FA05F2012B0FD0022B0FD0838A16
:103A40004FEA11210088134206FA01F600EA060047
:103A500001D000B10124204670BD8389F0E7038ABC
:103A6000EEE70A0A01219140C94301807047000036
:103A7000003801400044004000480040004C004035
:103A8000005000400648804706480047FEE7FEE732
:103A9000FEE7FEE7FEE7FEE7FEE7FEE7FEE7FEE7FE
:103AA000493B0008ED0000080CB500224C4800928C
:103AB0000192016841F4803101604FF4A063016814
:103AC00001F4003101910099491C0091019911B94B
:103AD00000999942F3D10168890333D501210191FD
:103AE00040490A6842F010020A600A6822F00302A4
:103AF0000A600A6842F002020A6041684160416857
:103B00004160416841F480614160416821F47C1169
:103B10004160416841F4E8114160016841F0807101
:103B2000016001688901FCD5416821F00301416011
:103B3000416841F0020141604168C1F381010229FD
:103B4000FAD10CBD01920CBD254810B5016841F0B9
:103B5000010101604168244A114041600168234A23
:103B600011400160016821F480210160416821F465
:103B7000FE0141604FF41F018160FFF795FF1C4972
:103B80004FF00060086010BD154A10B55068194B21
:103B900010F00C01184803D0042901D0082901D0E5
:103BA000036012E05168536801F470114FF0020491
:103BB00013F4803F04EB914102D053689B0301D57D
:103BC0000E4B00E00B4B5943016051680A4AC1F3A8
:103BD0000311121D515C0268CA40026010BD000052
:103BE00000100240002002400000FFF8FFFFF6FE38
:103BF00008ED00E000127A003800002000093D00C6
:103C000040EA01039B0703D009E008C9121F08C05E
:103C1000042AFAD203E011F8013B00F8013B521EDE
:103C2000F9D27047D2B201E000F8012B491EFBD255
:103C300070470022F6E710B513460A4604461946B7
:103C4000FFF7F0FF204610BD30B505462A460B466B
:103C500012F8010B13F8014B08B1A042F8D01CB1C7
:103C6000002802D06D1CF1E7284630BDCAB2401EC4
:103C700010F8011F8A4202D00029F9D100207047B4
:103C8000421C10F8011B0029FBD1801A70472DE956
:103C9000F04791460F4680460446002614F8015B23
:103CA0002DB100F05DF80068405DC007F6D12B2D06
:103CB00002D02D2D18D0641E4A463946204600F009
:103CC00053F827B13968A14201D1C7F800807105C6
:103CD0004FF002040BD54042002803DD00F0F8F855
:103CE0000460A007BDE8F08746F48066E4E700289A
:103CF000F8DA00F0EDF804606FF00040F2E72DE92B
:103D0000F05F0546002092469B468846064681465F
:103D100040241BE0284641464746224600F095F8DD
:103D200053465A46C01A914110D3114618462246AE
:103D300000F07CF82D1A67EB01084F46224601205F
:103D4000002100F073F817EB00094E41201EA4F18A
:103D50000104DFDC484631462A464346BDE8F09F71
:103D6000004870474C8D00082DE9F05F82460078CE
:103D7000002715468B460AF10104B946302801D0C8
:103D80009DB113E014F8010B0127782803D05828BF
:103D900001D045B10AE00DB1102D07D10027102543
:103DA00014F8010B02E0082500E00A250026B046C1
:103DB0000EE005FB080005FB06F1012701EB1046AC
:103DC0001FFA80F8B6F5803F00D3B94614F8010B0E
:103DD000294600F04AF80028EBDABBF1000F05D0C5
:103DE0000FB1641E00E05446CBF80040B9F1000F5B
:103DF00006D000F06DF802210160C81EBDE8F09FFA
:103E000048EA0640FAE70000064C074D06E0E06885
:103E100040F0010394E8070098471034AC42F6D311
:103E2000FCF768F9508D0008708D0008202A04DB2B
:103E3000203A00FA02F1002070479140C2F12003BD
:103E400020FA03F3194390407047202A04DB203AFC
:103E500021FA02F00021704721FA02F3D040C2F1AA
:103E6000200291400843194670473A2800D2303862
:103E700020F02002412A01D3A2F13700884201D369
:103E80004FF0FF30704700000FB4054B10B503A989
:103E9000044A029800F030F810BC5DF814FB0000F2
:103EA0006D1100084C0000200FB4084B10B504A998
:103EB00002AA039800F020F8044602A9002000F0AE
:103EC00048FA204610BC5DF814FB0000534300087C
:103ED000004870475800002002E008C8121F08C1BF
:103EE000002AFAD170477047002001E001C1121F7B
:103EF000002AFBD1704700002DE9FF4F8DB00F461F
:103F00000546002606E025280BD0DDE90F12904774
:103F10006D1C761C28780028F5D111B03046BDE81C
:103F2000F08F0024A246A1460122EA4900E00443A2
:103F300015F8013F203B02FA03F00842F7D1287838
:103F40002A2810D06FF02F022878A0F1300109291B
:103F500014D80AEB8A0102EB410144F0020400EBA1
:103F6000010A6D1CF0E701CF5FEA000A03D544F4B3
:103F70000054CAF1000A44F002046D1C28782E286F
:103F800017D115F8010F44F004042A280ED06FF061
:103F90002F022878A0F1300109290AD809EB8901FC
:103FA00002EB410100EB01096D1CF2E757F8049B9D
:103FB0006D1C28786C280FD006DC4C2817D0682898
:103FC0000DD06A2814D104E0742810D07A280FD1BB
:103FD0000DE044F400140AE044F4801401E044F4D9
:103FE00040146978814202D104F580146D1C6D1C67
:103FF0002A786E2A1FD00CDC632A31D004DC002A18
:104000008BD0582A11D19FE0642A68D0692A0CD13C
:1040100065E0732A2ED004DC6F2A73D0702A04D195
:1040200097E0752A6FD0782A6ED01046DDE90F121E
:104030009047761C4CE1C4F30250022806D00328B6
:1040400009D0042801CF09D0066041E101CFF11762
:10405000C0E900613CE101CF068039E1067037E13B
:1040600017F8040B8DF8000000208DF80100EB46D6
:10407000012003E057F804BB4FF0FF3061074FF019
:10408000000102D40DE008F10101884649450FDA2C
:104090008045F8DB1BF808100029F4D108E008F18E
:1040A000010188468142FADB1BF808100029F6D18D
:1040B000DDE90F23AAEB08008146214600F032F922
:1040C000304400EB080604E0DDE90F121BF8010B99
:1040D0009047B8F10108F7D221464846F3E00A219B
:1040E000C4F302534FF0000B0891022B04D001CF10
:1040F000C117032B09D00AE0FF1D27F00707F7E8D7
:10410000020108E02EE01DE01EE000B2C117042B02
:1041100001D140B2C117002907DA4FF0000CD0EBF3
:104120000C006CEB01012D2302E0230504D52B23A9
:104130008DF82430012303E0E30701D02023F7E7C3
:10414000984656E00A210EE010204FF0000B089030
:104150000CE010214FF0000B44F004044FF008096C
:10416000089103E008214FF0000B0891C4F30253BB
:10417000022B04D001CF0021032B06D006E0FF1D47
:1041800027F00707F7E8020103E080B2042B00D113
:10419000C0B24FF0000823072BD5702A07D0DDF8F6
:1041A00020C08CF0100C5CEA0B0C05D00EE0402314
:1041B0008DF82430012308E050EA010306D03023B3
:1041C0008DF824308DF8252002239846DDF820C094
:1041D0008CF0080C5CEA0B0C0BD150EA010301D106
:1041E000630706D530238DF824304FF00108A9F17C
:1041F0000109582A04D038A20B9208AA0A920BE0AF
:104200003AA2F9E75B46089AFFF779FD0B9B9B5CA6
:104210000A9A521E0A92137050EA0102F2D10A98C9
:10422000ADEB000000F1200B600702D524F48034D0
:1042300001E04FF00109D94502DDA9EB0B0000E0D8
:10424000002000EB0B0141440890AAEB010AE003B7
:1042500006D4DDE90F232146504600F063F80644FA
:104260004FF0000908E009A911F80900DDE90F1273
:10427000904709F10109761CC145F4DBE0030CD538
:10428000DDE90F232146504600F04CF8064404E0D7
:10429000DDE90F1230209047761C0899481E0890DF
:1042A0000029F5DC08E00A980A990078491C0A916F
:1042B000DDE90F129047761CBBF10001ABF1010B59
:1042C000F1DC21465046DDE90F2300F019F80644E1
:1042D0006D1C1FE609280100303132333435363782
:1042E0003839616263646566000000003031323342
:1042F00034353637383941424344454600000000E2
:104300002DE9F041044600251E461746880404D4D2
:1043100005E039462020B0476D1C641EF9D52846BB
:10432000BDE8F0812DE9F041044600251E46904687
:10433000C80301D5302700E02027880404D505E014
:1043400041463846B0476D1C641EF9D52846BDE885
:10435000F0810A68531C0B601070704710B500287C
:1043600021D0114B0022001F196803E0814203D8BD
:104370000A4649680029F9D152B11368841A9C424F
:1043800004D1006818441060104602E0506000E05C
:10439000186039B102680B1A934203D10B681A44B2
:1043A00002604968416010BD50000020F0B50B303C
:1043B000154D20F007010024144A0FE003688B42DA
:1043C0000BD38B4205D95E1A43184768C3E90067CF
:1043D00000E04368136002C004E0021D106800287A
:1043E000ECD12046002802D1286808B10020F0BD99
:1043F000064A07481060074A121A22F00702C0E96D
:10440000002401202860D7E754000020500000203D
:10441000E4030020E009002000000000000000008C
:10442000000000000000000000000000000000008C
:10443000000000000000000000000000000000007C
:10444000000000000000000000000000000000006C
:10445000000000000000000000000000000000005C
:10446000000000000000000000000000000000004C
:10447000000000000000000000000000000000003C
:10448000000000000000000000000000000000002C
:10449000000000000000000000000000000000001C
:1044A000000000000000000000000000000000000C
:1044B00000000000000000000000000000003000CC
:1044C0000078000078000078000078000078000094
:1044D0007800007800007800007800007800003054
:1044E00000003000003000003000003000003000DC
:1044F00000300000300000300000300000300000CC
:10450000300000000000000000000000000000007B
:104510000000700000F80000F80000F800007000D3
:10452000000000000000000000000000000000008B
:10453000000000000000000000000000000000007B
:104540000000C0C001E1E003E3E003C3C0078780CF
:104550000707000E0E000C0C0018180010100020A9
:10456000200000000000000000000000000000002B
:10457000000000000000000000000000000000003B
:10458000000000000000000000000000000000002B
:10459000000000000000000000000000000000001B
:1045A000000000000000000000000000000000000B
:1045B00000000000000000000000000000000000FB
:1045C00000000000000000000000000000000000EB
:1045D00000000000000000000000000000000000DB
:1045E0000300C00300C00300C00300C00300C003F9
:1045F00000C00300C07FFFF87FFFF87FFFF87FFF58
:10460000F80601800601800601800601800601800F
:104610000601800601800601800601807FFFF87F89
:10462000FFF87FFFF87FFFF80C03000C03000C037A
:10463000000C03000C03000C03000C03000C03002F
:10464000000000000000000000000000000000006A
:10465000000000000000000000000000000000005A
:1046600000000000000000003000003000003000BA
:1046700000FE0003B3800631C00E30C00C30E01CD9
:1046800030E01C31E01C31E01E31C01E30000F3024
:10469000000FB00007F00003F00001F800007E00FA
:1046A000003F00003F000037800033C00031C000F1
:1046B00031E01C30E03E30E03E30E03E30E03C3067
:1046C000E01830C01831C00C318006370001FC0002
:1046D00000300000300000300000300000300000EA
:1046E00000000000000000000000000000000000CA
:1046F00000000000000000000000000000000000BA
:104700001E00603100406180C0408080C0C180C018
:10471000C100C0C100C0C300C0C200C0C600C0C448
:1047200000C0CC00C0C8006088006198003311E070
:104730001E3330002618006618004408004C0C0098
:10474000CC0C008C0C018C0C010C0C010C0C020C20
:104750000C020C0C0604080406180C03300801E0D7
:104760000000000000000000000000000000000049
:104770000000000000000000000000000000000039
:104780000000000000000000000000000000000029
:1047900000F000031C00060C00040E000C0E000CC0
:1047A0000E000C0E000C0E000C0E000C1C000E1C5B
:1047B0000006380007700007C0000707F80F80E008
:1047C0001B80C033C0C071C0C061E0C060E080E049
:1047D000F080E07180E07980E03D00E01F00F01E95
:1047E00000700F02780F823C1BC41FF1FC07C0F061
:1047F00000000000000000000000000000000000B9
:1048000000000000000000000000000000000000A8
:10481000001C00003E00003F00003F00001F0000A1
:104820000700000700000600000C00001C00003814
:104830000000600000000000000000000000000018
:104840000000000000000000000000000000000068
:104850000000000000000000000000000000000058
:104860000000000000000000000000000000000048
:104870000000000000000000000000000000000038
:104880000000000000000000000000000000000028
:104890000000000000000000000000000000000018
:1048A000000000100000200000600000C000018037
:1048B000000380000300000600000E00000C000052
:1048C0001C00001C000038000038000038000038D0
:1048D00000007000007000007000007000007000A8
:1048E0000070000070000070000070000070000098
:1048F0003000003800003800003800001C00001CA8
:1049000000000C00000E000006000007000003007D
:104910000001800000C000006000002000001000C6
:104920000000000000000000000000000000000087
:10493000006000003000001800001C00000C0000A7
:1049400006000003000003800001800001C0000099
:10495000C00000E000006000007000007000007007
:10496000000038000038000038000038000038002F
:10497000003800003800003800003800003800001F
:10498000700000700000700000600000E00000E0B7
:104990000001C00001800003800003000006000049
:1049A0000E00001C00001800003000006000000035
:1049B00000000000000000000000000000000000F7
:1049C00000000000000000000000000000000000E7
:1049D000000000000000000000000000003800009F
:1049E00038000038000038000038003038187838B7
:1049F0007C7E30FC3F11F80F93E001D700007C0073
:104A0000007C0001D7000F93E03F11F87E18FC7C7A
:104A1000383C30381C0038000038000038000038BE
:104A2000000038000000000000000000000000004E
:104A30000000000000000000000000000000000076
:104A40000000000000000000000000000000000066
:104A50000000000000000000000000000000000056
:104A60000000000000000000000000000030000016
:104A70003000003000003000003000003000003016
:104A8000000030000030000030000030007FFFF8F0
:104A90007FFFF800300000300000300000300000E0
:104AA00030000030000030000030000030000030E6
:104AB00000003000000000000000000000000000C6
:104AC00000000000000000000000000000000000E6
:104AD00000000000000000000000000000000000D6
:104AE00000000000000000000000000000000000C6
:104AF00000000000000000000000000000000000B6
:104B000000000000000000000000000000000000A5
:104B10000000000000000000000000000000000095
:104B20000000000000000000000000000000000085
:104B30000000000000000000000000000000000075
:104B4000001C00003E00003F00003F00001F00006E
:104B50000700000700000600000C00001C000038E1
:104B600000006000000000000000000000000000E5
:104B70000000000000000000000000000000000035
:104B80000000000000000000000000000000000025
:104B90000000000000000000000000000000000015
:104BA000000000000000000000000000007FFFFC8B
:104BB0007FFFFC000000000000000000000000007B
:104BC00000000000000000000000000000000000E5
:104BD00000000000000000000000000000000000D5
:104BE00000000000000000000000000000000000C5
:104BF00000000000000000000000000000000000B5
:104C000000000000000000000000000000000000A4
:104C10000000000000000000000000000000000094
:104C20000000000000000000000000000000000084
:104C30000000000000000000000000000000000074
:104C40000000000000000000000000000000000064
:104C500000000000000000000000000000001E0036
:104C6000003F00003F00003F00003F00001E00002A
:104C70000000000000000000000000000000000034
:104C80000000000000000000000000000000000024
:104C900000000000000008000018000010000030B4
:104CA0000000200000600000400000C00000800004
:104CB0000080000100000100000200000200000668
:104CC00000000400000C00000800001800001000A4
:104CD00000300000200000600000400000C0000024
:104CE00080000180000100000100000200000200BD
:104CF000000400000400000C000008000018000080
:104D000010000030000020000060000040000000A3
:104D10000000000000000000000000000000000093
:104D20000000000000000000000000000000000083
:104D300000F8000386000703000E01800C01C01C70
:104D400000C01800C03800E03800E0380060700093
:104D50007070007070007070007070007070007083
:104D60007000707000707000707000707000707073
:104D700000703800603800E03800E01800C01C0007
:104D8000C00C01800E018006030003860000F800BD
:104D90000000000000000000000000000000000013
:104DA0000000000000000000000000000000000003
:104DB00000000000000000000000000000000000F3
:104DC00000080000180000380007F8000038000054
:104DD0003800003800003800003800003800003883
:104DE00000003800003800003800003800003800AB
:104DF000003800003800003800003800003800009B
:104E00003800003800003800003800003800003852
:104E100000003800003800003800007C0007FFC0A8
:104E20000000000000000000000000000000000082
:104E30000000000000000000000000000000000072
:104E40000000000000000000000000000000000062
:104E500000FC000307000C03801801C01801C038D3
:104E600000E03800E03800E03C00E03C00E01C00DE
:104E7000E00001C00001C0000380000380000700C3
:104E8000000E00001C0000380000700000E000016F
:104E9000C0000380000300000600200C0020180062
:104EA000603000602000C07FFFC07FFFC07FFFC078
:104EB00000000000000000000000000000000000F2
:104EC00000000000000000000000000000000000E2
:104ED00000000000000000000000000000000000D2
:104EE00000FC000307000603800C01C01C01C01C6D
:104EF00000E01E00E01E00E00E00E00000E0000008
:104F0000C00001C0000180000300000E0000F80096
:104F1000000F000001800000C00000E00000600001
:104F200000700000701800703C00703C00703C0085
:104F3000603800E01800C00C018006070001FC008A
:104F40000000000000000000000000000000000061
:104F50000000000000000000000000000000000051
:104F60000000000000000000000000000000000041
:104F7000000300000700000700000F00001F0000F2
:104F8000170000370000270000670000C7000087F7
:104F9000000187000307000207000607000407005E
:104FA0000807001807001007003007006007007F9F
:104FB000FFF87FFFF8000700000700000700000768
:104FC0000000070000070000070000078000FFF84E
:104FD00000000000000000000000000000000000D1
:104FE00000000000000000000000000000000000C1
:104FF00000000000000000000000000000000000B1
:105000000FFFE00FFFE00FFFE008000008000008BE
:105010000000080000080000100000100000100050
:105020000010FE0013FF001703801C01C01C00E0ED
:105030001800E00000F00000700000700000700038
:1050400000701800703C00703C00703C006038003C
:10505000E01800E01801C00C018007070001FC0007
:105060000000000000000000000000000000000040
:105070000000000000000000000000000000000030
:105080000000000000000000000000000000000020
:10509000007E000183800303800603C00C03C01858
:1050A00003C0180000180000380000300000300075
:1050B00000700000707E0071FF807783C07601C0B1
:1050C0007C00E07800E0700070700070700070701C
:1050D0000070700070300070380070380070180078
:1050E000601C00E00C00C006018003830000FC008F
:1050F00000000000000000000000000000000000B0
:10510000000000000000000000000000000000009F
:10511000000000000000000000000000000000008F
:105120001FFFF01FFFF01FFFE01C00601000C030E9
:105130000080200180200100000300000200000622
:1051400000000400000C0000080000180000180017
:1051500000300000300000700000600000600000BF
:10516000E00000E00000E00000E00001E00001E0FD
:105170000001E00001E00001E00001E00000E000CB
:10518000000000000000000000000000000000001F
:10519000000000000000000000000000000000000F
:1051A00000000000000000000000000000000000FF
:1051B00001FE000703800E01C01C00E01800E0386B
:1051C00000703800703800703800703C00701E00AD
:1051D000E01F00E00F81C007E38003FE0003FE0034
:1051E000063F000C0F801C07C03801E03801E0705A
:1051F00000F07000707000707000707000707000CF
:10520000703800E01800C00C01C007030001FC006A
:10521000000000000000000000000000000000008E
:10522000000000000000000000000000000000007E
:10523000000000000000000000000000000000006E
:1052400001F8000706000C01001C01803800C0387E
:1052500000C030006070006070006070007070000E
:10526000707000707000707000F03800F03801F05D
:105270003C03701F0E700FFC7003F07000006000A4
:1052800000E00000E00000E00000C00001C00C01F0
:10529000801E03801E03001E06000E1C0003F0008B
:1052A00000000000000000000000000000000000FE
:1052B00000000000000000000000000000000000EE
:1052C00000000000000000000000000000000000DE
:1052D00000000000000000000000000000000000CE
:1052E0000000000000000000000000000000007846
:1052F0000000FC0000FC0000FC0000FC0000780046
:10530000000000000000000000000000000000009D
:105310000000000000000000000000000000007815
:105320000000FC0000FC0000FC0000FC0000780015
:10533000000000000000000000000000000000006D
:10534000000000000000000000000000000000005D
:10535000000000000000000000000000000000004D
:10536000000000000000000000000000000000003D
:10537000000000000000000000000000000000002D
:10538000000078000078000078000078000000003D
:10539000000000000000000000000000000000000D
:1053A00000000000000000000000000000000000FD
:1053B000000000000078000078000078000078000D
:1053C00000180000300000300000300000600000D5
:1053D00000000000000000000000000000000000CD
:1053E000000000000000000000000000000000209D
:1053F0000000700000E00001C00003000006000093
:105400000C0000180000300000600000C0000180A7
:10541000000300000600000C00001800003000002F
:105420001800000C000006000003000001800000CE
:10543000C000006000003000001800000C000006F2
:10544000000003000001C00000E000007000002028
:10545000000000000000000000000000000000004C
:10546000000000000000000000000000000000003C
:10547000000000000000000000000000000000002C
:10548000000000000000000000000000000000001C
:1054900000000000000000000000000000007FFF8E
:1054A000FC7FFFFC00000000000000000000000086
:1054B0000000000000000000000000007FFFFC7FF3
:1054C000FFFC0000000000000000000000000000E1
:1054D00000000000000000000000000000000000CC
:1054E00000000000000000000000000000000000BC
:1054F00000000000000000000000000000000000AC
:10550000000000000000000000000000001000008B
:105510003800001C00000E000003000001800000A5
:10552000C000006000003000001800000C00000601
:10553000000003000001800000C000006000003097
:105540000000600000C000018000030000060000B1
:105550000C0000180000300000600000C000018056
:10556000000300000E00001C0000380000100000C6
:10557000000000000000000000000000000000002B
:10558000000000000000000000000000000000001B
:105590000000000000000000000000000001FC000E
:1055A00007FF000E03801801C03000E0300060608B
:1055B00000707000707800707C00707C00703C009F
:1055C000700000E00001E00003C0000780000F0051
:1055D000001C0000380000300000300000300000E7
:1055E000300000300000300000000000000000002B
:1055F0000000700000F80000F80000F800007000E3
:10560000000000000000000000000000000000009A
:10561000000000000000000000000000000000008A
:10562000000000000000000000000000000000007A
:10563000007E0001C1800300600600200C00300CD9
:105640000018180ED818319838618C38618C30C128
:105650008C70C18C71818C71838C71838C73038C81
:1056600073038C73030C73030873071873071833E1
:105670000F10399B3039FBE038E1CC1C00081C00CE
:10568000180E003007006003C1E001FF80007E00BB
:10569000000000000000000000000000000000000A
:1056A00000000000000000000000000000000000FA
:1056B00000000000000000000000000000001000DA
:1056C00000700000780000F80000F80000F800000A
:1056D000D800019C00019C00019C00018C00030E7D
:1056E00000030E00030E0003060006070006070075
:1056F0000607000607000C03800FFF800C03800CD8
:1057000003801803C01801C01801C01801C030017F
:10571000E03000E03000E03000E07000F0FC03FC1E
:105720000000000000000000000000000000000079
:105730000000000000000000000000000000000069
:105740000000000000000000000000000000000059
:10575000FFFE001C07801C03C01C01C01C00E01CD5
:1057600000E01C00E01C00E01C00E01C00E01C014C
:10577000C01C01C01C03801C07001FFC001C038010
:105780001C00C01C00E01C00701C00701C00381CB9
:1057900000381C00381C00381C00381C00381C0065
:1057A000381C00701C00701C00E01C0380FFFE0011
:1057B00000000000000000000000000000000000E9
:1057C00000000000000000000000000000000000D9
:1057D00000000000000000000000000000000000C9
:1057E000003F0800C1F80300780600380E00180CCE
:1057F00000181C000C18000C3800043800003000A1
:105800000070000070000070000070000070000068
:1058100070000070000070000070000070000070E8
:10582000000038000438000C3800081C00081C0078
:10583000180E00300F00600781C001FF80007E005D
:105840000000000000000000000000000000000058
:105850000000000000000000000000000000000048
:105860000000000000000000000000000000000038
:10587000FFF0001C0E001C03001C01801C00C01C5B
:1058800000E01C00601C00701C00701C00301C003C
:10589000381C00381C00381C00381C00381C00382C
:1058A0001C00381C00381C00381C00381C00381C38
:1058B00000301C00701C00701C00701C00601C007C
:1058C000E01C01C01C01801C07001C1E00FFF00032
:1058D00000000000000000000000000000000000C8
:1058E00000000000000000000000000000000000B8
:1058F00000000000000000000000000000000000A8
:10590000FFFFC01C01C01C00E01C00601C00201C2C
:1059100000301C00101C00001C00001C01001C01B9
:10592000001C01001C01001C03001FFF001C0700DD
:105930001C03001C01001C01001C01001C00001CB9
:1059400000001C00001C00001C00081C00081C00BB
:10595000101C00101C00301C00701C01E0FFFFE058
:105960000000000000000000000000000000000037
:105970000000000000000000000000000000000027
:105980000000000000000000000000000000000017
:10599000FFFFF01C00F01C00781C00181C00081C05
:1059A000000C1C00041C00001C00001C00001C005B
:1059B000801C00801C00801C00801C01801FFF8058
:1059C0001C03801C01801C00801C00801C00801CAB
:1059D00000001C00001C00001C00001C00001C003B
:1059E000001C00001C00001C00001C0000FF8000C8
:1059F00000000000000000000000000000000000A7
:105A00000000000000000000000000000000000096
:105A10000000000000000000000000000000000086
:105A200000F8400387C00601C00C01C01C00C0186C
:105A3000004038006030006070002070000060009E
:105A400000E00000E00000E00000E00000E00000F6
:105A5000E00000E00000E007FCE001F0E000E060B2
:105A600000E07000E07000E07000E03800E0380016
:105A7000E01800E00C00E00E01E003830000FC00F1
:105A80000000000000000000000000000000000016
:105A90000000000000000000000000000000000006
:105AA00000000000000000000000000000000000F6
:105AB000FF07FC3800E03800E03800E03800E0384C
:105AC00000E03800E03800E03800E03800E038005E
:105AD000E03800E03800E03800E03800E03FFFE068
