:020000040800F2
:10000000F80F0020B13E0008B93E000811170008A3
:10001000BD3E0008BF3E0008C13E000800000000D1
:10002000000000000000000000000000C33E0008C7
:10003000C53E000800000000C73E0008C93E000899
:10004000CB3E0008CB3E0008CB3E0008CB3E00086C
:10005000B3190008CB3E0008CB3E0008CB3E000899
:10006000CB3E0008CB3E0008CB3E0008CB3E00084C
:10007000CB3E0008CB3E0008CB3E0008CB3E00083C
:10008000CB3E0008CB3E0008CB3E0008CB3E00082C
:10009000CB3E0008CB3E0008CB3E0008CB3E00081C
:1000A000CB3E0008951A0008CB3E0008CB3E000866
:1000B000CB3E0008CB3E0008CB3E0008CB3E0008FC
:1000C000CB3E0008CB3E0008CB3E0008CB3E0008EC
:1000D000CB3E0008CB1C0008011D0008371D00089E
:1000E000CB3E0008CB3E0008CB3E0008DFF80CD02A
:1000F00004F008FB0048004701010008F80F002049
:1001000001F0E3F9032001F0D2F901F010FAFCE765
:1001100010B5044600211C2001F07DFC01212C209B
:1001200001F079FC210A012001F052FFE1B2012027
:1001300001F04EFF0121BDE810401C2001F06BBC16
:10014000704710B5292000F0DAF90021BDE8104011
:10015000152001F060BC10B5282000F0D0F9012175
:10016000BDE81040152001F056BC2DE9FE4F994620
:10017000DDF830B0884607462AB13020012A0CD07D
:10018000022A15D063E00820ADF800001020ADF879
:100190000200ADF80400FE4808E01821ADF8001098
:1001A000ADF802009020ADF80400FA4802904EE04D
:1001B000ADF800006120ADF8020040F24620ADF835
:1001C0000400F548F2E7BDF80020C2F1F000B842A3
:1001D00006DABDF80210002701EB080080B207E044
:1001E000BDF80200C0F5A071414502DA002738468B
:1001F0008046303BBDF80450029C9BB203FB054A8D
:1002000038464146BDF8023000F0A1F92C2000F03C
:1002100076F9002611E01AF806500024280601D5C8
:10022000584600E00020FFF773FF6806641C050EC7
:10023000A4B2082CF2D3761CB6B2BDF80400B042CA
:10024000E9D8BDF8000009F10109384487B299F8EE
:100250000030002BB7D1BDE8FE8F70B5CB2000F089
:100260004EF9392000F05FF92C2000F05CF90020F5
:1002700000F059F9342000F056F9022000F053F94B
:10028000CF2000F03CF9002000F04DF9C12000F033
:100290004AF9302000F047F9E82000F030F98520D5
:1002A00000F041F9002000F03EF9782000F03BF921
:1002B000EA2000F024F9002000F035F9002000F0D9
:1002C00032F9ED2000F01BF9642000F02CF9032036
:1002D00000F029F9122000F026F9812000F023F91E
:1002E000F72000F00CF9202000F01DF9C02000F0EC
:1002F00006F9232000F017F9C12000F000F91020C2
:1003000000F011F9C52000F0FAF83E2000F00BF9DA
:10031000282000F008F9C72000F0F1F8862000F04E
:1003200002F9362000F0EBF8482000F0FCF83A2003
:1003300000F0E5F8552000F0F6F8B12000F0DFF805
:10034000002000F0F0F8182000F0EDF8B62000F0E2
:10035000D6F8082000F0E7F8822000F0E4F8272023
:1003600000F0E1F8F22000F0CAF8002000F0DBF81D
:10037000262000F0C4F8012000F0D5F8E02000F0BD
:10038000BEF80F2000F0CFF8312000F0CCF82B2081
:1003900000F0C9F80C2000F0C6F80E2000F0C3F8F9
:1003A000082000F0C0F84E2000F0BDF8F12000F069
:1003B000BAF8372000F0B7F8072000F0B4F81020A2
:1003C00000F0B1F8032000F0AEF80E2000F0ABF81A
:1003D000092000F0A8F8002000F0A5F8E12000F0C6
:1003E0008EF8002000F09FF80E2000F09CF81420FA
:1003F00000F099F8032000F096F8112000F093F82F
:10040000072000F090F8312000F08DF8C12000F0B6
:100410008AF8482000F087F8082000F084F80F20C0
:1004200000F081F80C2000F07EF8312000F07BF81D
:10043000362000F078F80F2000F075F8112000F059
:100440005EF8782001F01EFE292000F058F8002602
:100450002A2000F054F8002000F065F8002000F099
:1004600062F82B2000F04BF8002000F05CF8002030
:1004700000F059F82C2000F042F800244FF4963593
:100480003046FFF745FE641CAC42F9D370BD10B591
:100490000021152001F0CEFA0021322001F0CAFA25
:1004A00000212C2001F0C6FA00211C2001F0C2FA24
:1004B0000121322001F0AFFA0121152001F0ABFA41
:1004C00000212C2001F0A7FA00211C2001F0A3FA42
:1004D0000021322001F09FFA322001F0D3FD0121EA
:1004E000322001F098FA782001F0CCFDFFF7B5FE3C
:1004F0000021BDE81040152001F08DBA704710B5FD
:10050000044600211C2001F086FA00212C2001F075
:1005100082FA2146012001F05BFD0121BDE8104077
:100520001C2001F078BA10B5044600211C2001F00F
:1005300072FA01212C2001F06EFA2146012001F00F
:1005400047FD0121BDE810401C2001F064BA2DE9EF
:10055000F04105461E4617460C462A20FFF7CFFFFE
:10056000280AFFF7E0FFE8B2FFF7DDFF3D446D1E0C
:10057000C5F30720FFF7D7FFE8B2FFF7D4FF2B2022
:10058000FFF7BDFF200AFFF7CEFFE0B206E0000054
:100590009485000894580008448A0008FFF7C3FFB8
:1005A0003444641EC4F30720FFF7BDFFE0B2BDE88A
:1005B000F041B8E7334910B5884201D12A2004E060
:1005C00030491031884203D12B2001F017FA08B1CD
:1005D000002010BD012010BD2DE9F0412A4B294C0F
:1005E0001B68A77804F1100542B1012641F2883258
:1005F000A0421CD191421FD9AFB11DE040F2BB72A5
:100600001539914218D20021A04204D10FB1A17036
:1006100018E0012005E0A84214D1A87808B1A9701B
:1006200010E098470EE003209847A6700AE0A84221
:1006300002D1914200D917B10020BDE8F08102201B
:100640009847AE700120F8E70F490860704710B571
:1006500001212A2001F0EEF901212B2001F0EAF915
:1006600001F008F8094A0A49064801F02BF8054844
:10067000BDE81040054A0649103001F023B800F0EB
:10068000FABF00006400002000000020B50500084B
:10069000D905000830B587B00C46054618216846D4
:1006A00003F0DDFC444945A004F09EF822462946AB
:1006B00044A004F099F849A004F096F8284600F008
:1006C0009DFD07B030BD2DE9F043454F894639788F
:1006D000002934D1002294462FE0424C7978835C83
:1006E0006354491CC9B27970012904D0022906D08B
:1006F000202908D01FE0815C42291AD11BE0815CCF
:100700004D2916D117E037491E25364C8B7FC97FFE
:1007100001EB03218EB20023194614F80180491C15
:100720004344C9B29BB2A942F7D3B34201D10121DC
:10073000397087F801C0521C92B24A45CDD3BDE84A
:10074000F0831FB54FF4165002900020ADF8000062
:10075000ADF80400ADF8020023480390694601207B
:1007600001F0E0F90021084601F064F900210120C0
:1007700001F060F90121002001F04DF90121084646
:1007800001F049F900210846FFF784FF1FBD10B5AD
:10079000134C207800280ED01249487B0A7B00EBCE
:1007A0000220CA7B897B80B202EB012189B2FFF76C
:1007B00071FF0020207010BD00A1000825733A20B1
:1007C00000000000706D322E35203D2025642C2065
:1007D000706D3130203D2025640000000A000000CB
:1007E0000400002084000020C706000801210F201B
:1007F00001F020B93EB50F2001F000F9064C217838
:10080000884208D00F2001F0F9F82070024603A1B9
:10081000684603F0F9FF3EBD0600002049522070F3
:10082000696E3A256400000010B5F849024608696F
:1008300008B9096149610C6915E0A379934211D1A6
:10084000206930B161690861D4E904014161002087
:100850002061A06808B104F0A9FA2046BDE8104064
:1008600004F0A4BA04468C422069E6D110BD2DE9FB
:10087000F0471F4690460E46814603F017FCC5B26E
:100880001EB3182004F0BAFA04001CD0284604F065
:10089000B5FAA060002816D02A46494603F0C6FBE8
:1008A0002570A67000206070A4F80480E060D7482E
:1008B000A771016909B900614061206141690C615A
:1008C000416961614461BDE8F08729464846BDE859
:1008D000F04700F028BB2DE9F04393B00546002413
:1008E0004021684603F0BBFB2946C9A003F07CFF0A
:1008F000C84F4FF4FA79A046FA78162A74D2DFE886
:1009000002F073730B1427343F4A5568747F8C9739
:10091000ADB8C3CE73D9E4ECBFA1284603F0AAFB5F
:10092000002877D0012038700AE1BBA1284603F0E7
:10093000A1FB00286ED000F093FD447900F090FDFB
:1009400002792346B5A1684603F05EFF042381E0E7
:10095000B1A1284603F08EFB00285BD005234A4650
:100960000321B8A0FFF783FFEAE0ABA1284603F01C
:1009700081FB00284ED006234A460321BAA0F1E7A6
:10098000A5A1284603F076FB002843D007234A465A
:100990000321BFA0E6E7A0A1284603F06BFB0028D7
:1009A00038D008234A460321C2A0DBE79AA1284693
:1009B00003F060FB00282DD000F074FD044600F029
:1009C00073FD02462346BEA1684603F01DFF0923BE
:1009D00040E091A1284603F04DFB00287AD00A237D
:1009E0004A460321BBA0BDE7A8E08BA1284603F03F
:1009F00041FB00286ED00B234A460321B9A0B1E782
:100A000085A1284603F036FB002863D00C234A4614
:100A1000032100E05EE0B9A0A4E77FA1284603F02F
:100A200029FB002856D00D234A460321B8A099E798
:100A300079A1284603F01EFB00284BD000F010FDE2
:100A4000447900F00DFD02792346B5A1684603F014
:100A5000DBFE0E234A460321684683E76EA1284643
:100A600003F008FB002835D00F234A460321B4A029
:100A700078E769A1284603F0FDFA00282AD0102360
:100A80004A460321B2A06DE763A1284603F0F2FABB
:100A900000281FD011234A460321B5A062E75EA1BA
:100AA000284603F0E7FA002814D013234A4603210E
:100AB000B3A057E758A1284603F0DCFA002809D074
:100AC00014234A460321B2A04CE753A1284603F061
:100AD000D1FA90BB13B0BDE8F083B0A1284603F073
:100AE000C9FA0028F6D03D2103F0D6FA461C11AD14
:100AF000AC49ADA0CDF8408003F076FE3146ACA005
:100B000003F072FEABA003F06FFE002406EB44007E
:100B100010220088ADF84000002110A803F0CDFAA3
:100B20002855641CE4B2062CF0D3284600F09AFC49
:100B300003234A461946A0A014E701E0002CC9D0BF
:100B4000F878FFF771FE87F80380C3E7F8B5314CFA
:100B50002E4B0025A188403B02265854491C89B2DF
:100B6000A180A278012A04D0022A0CD0032A23D023
:100B700024E0612824D18DF800000121684600F0AE
:100B8000D2F9A6701CE0032918D118782B2817D1A8
:100B900058786F2814D198786B2811D10120FFF76D
:100BA00043FE15234FF4FA72032187A0FFF75FFE7F
:100BB0000320A070267003E00A2803D0402900D348
:100BC000A580F8BD11485D544038FFF784FEF7E773
:100BD000F0B50E4B002218334FF400769D1D0FE048
:100BE0009C88B4420AD25F88845C7C555C88641C13
:100BF000C4F308045C809C88641C9C80521C92B2E4
:100C00008A42EDD3F0BD034800787047E40000202D
:100C100025730A00080000202B6F6B0041542B57EE
:100C200041503D313142474E2C467269426F7850F7
:100C30006163322D25303278253032782C434836A6
:100C40000D00000041542B57414B45593D57504131
:100C50003250534B2C4145532C467269426F7850A9
:100C60006163320D0000000041542B4C414E4E3D5B
:100C70003139322E3136382E3135302E3235342C52
:100C80003235352E3235352E3235352E300D0000C9
:100C900041542B4E4554503D5443502C53455256CD
:100CA00045522C31373338302C302E302E302E3008
:100CB0000D00000041542B544350544F3D300D0063
:100CC00041542B534F434B423D5443502C25642CED
:100CD00025730D0041542B544350544F423D300D69
:100CE0000000000041542B574542553D6672696231
:100CF0006F782C667269626F780D000041542B5337
:100D000045415243483D31373338310D0000000032
:100D100041542B415357443D467269426F780D0050
:100D200041542B57524D49443D467269426F7850A9
:100D30006163322D25303278253032780D00000085
:100D400041542B4E5450454E3D6F6E0D0000000037
:100D500041542B4E54505345523D636E2E706F6F6D
:100D60006C2E6E74702E6F72672C380D00000000B0
:100D700041542B4E545052463D33300D000000007C
:100D800041542B534D54534C3D6169720D0000008A
:100D900041542B534D544C4B0D0000002B6F6B3DB9
:100DA0000000000015A1000825733A200000000093
:100DB000257300000A00000041542B574D4F444555
:100DC0003D41505354410D0041542B57534D414325
:100DD0000D00000019E710B59349AFF2340003F09D
:100DE00003FDAFF2801003F0FFFCAFF2380003F018
:100DF000FBFC8E490020487010BD38B58B4C6078E4
:100E0000002824D188490E31AFF2640003F0ECFCD5
:100E1000AFF2B01003F0E8FCAFF2680003F0E4FCBE
:100E2000012583A06570006800902B464FF4FA629C
:100E300003216846FFF71BFDA57001B00023BDE844
:100E400030401A464EF660217A4800F0CFBB38BDDC
:100E5000754910B52131AFF2B00003F0C5FCAFF217
:100E6000FC1003F0C1FCAFF2B40003F0BDFC0121A3
:100E7000BDE81040102000F0CEBD1FB56E48002127
:100E800000614061102000F0D5FD0021112000F02C
:100E9000D1FD0121252000F0CDFD0121112000F020
:100EA000BAFD0121102000F0B6FD4FF4E13000241E
:100EB00002906248ADF800400390ADF80440ADF8F0
:100EC00002406946022000F02DFE57492B31AFF257
:100ED000281003F089FCAFF22C1003F085FCAFF270
:100EE0002C1003F081FC514800210470102000F008
:100EF00092FD04B00023BDE810401A464FF416716D
:100F00004F4800F073BB10B500F026F8474C20782E
:100F100028B9252000F072FD08B901202070BDE835
:100F2000104000F05BB870B50C463F4905462839C3
:100F3000AFF28C1003F058FC2946AFF28C1003F08E
:100F400053FCAFF2901003F04FFC22462946BDE857
:100F50007040022000F09BBE374810B504698442FF
:100F600000D10024002C38D000F0E2FBE168401AE8
:100F7000A188884231D96078A178884220D320693D
:100F800030B161690861D4E9040141610020206148
:100F9000A06808B103F00AFF204603F007FF2249CA
:100FA000A4791539AFF2002003F01EFC214625A0DC
:100FB00003F01AFCAFF20420BDE8104003F014BCAB
:100FC0001A49A079C8702178A068FFF7ACFF00F03B
:100FD000AFFBE0606078401C607010BD70B5164CCF
:100FE0001834A08800281DD0002000F0ADFB238815
:100FF000A01DA2881D5C2AB15B1CC3F308002080E1
:10100000521EA280012000F09FFB0848C07818B152
:101010002846BDE8704099E52946BDE870400BA020
:1010200003F0E2BB70BD000035A1000808000020FD
:101030002B2B2B00D70D0008E4000020D10B00085B
:10104000510E00086964203D2025640025630000DE
:1010500070B5054605280DD2094E002404EB840026
:1010600030442146425D012000F08CFE641CE4B255
:10107000042CF3D370BD0021012000F09ABE70470C
:101080006BA10008F8B5494E00250095307803287B
:1010900028D0022846D100F04BFB7168401AC828BE
:1010A00040D996F9020003F0E7F802460B4600200B
:1010B0004FF0804103F0D8FE00223D4B03F0D6F8FC
:1010C00003F0EBF8F2780DF80200684600F063F8E0
:1010D00070780028B0782AD0401C40B2B070082840
:1010E00021DC1CE000F024FB7168401AC82819D9E3
:1010F000002404E02F4801F031F8641CE4B296F9B2
:1011000002008442F6DBF07800F036F801F026F8B1
:10111000B078401C40B2B070102800DDB57000F00F
:1011200007FB7060F8BD0820B0707570F7E7401ECF
:1011300040B2B0700028F2DAB57001207070EEE7AE
:1011400070B51A4C05000E460ED0084600F014F893
:1011500000F021F8E67000F0EBFA60600020A0706B
:1011600001206070257070BD124800F014F8F9E796
:1011700002210120E4E785E701000E4808D001299B
:1011800003D0022900D1093070470A48C01C7047BB
:101190000848801D704770B505460024284600F0B9
:1011A000DDFF641CE4B2102CF8D370BD10000020E9
:1011B0000000F03F7FA1000808B548F23041012847
:1011C00006D0022807D000280CD139A3009104E0F2
:1011D00038A3009101E038A3009101223421562068
:1011E000FEF7C3FF08BD08B548F230410346009141
:1011F000002243218220FEF7B8FF08BD1CB5002164
:101200000191222802D84FF4FC6417E0A0F12301D9
:101210004FF6E074272911D9283928290ED9293900
:10122000222902D84FF6074408E0A0F1970163296C
:1012300002D84FF4784401E04FF61F0402461FA184
:1012400001A803F0E1FA01AB02226F2132200094E1
:10125000FEF78BFF1CBD70471CB5002102460191B3
:1012600018A101A803F0D0FA48F23040009001AB79
:101270000122D2216020FEF778FF1CBD1CB50021A1
:101280000246019110A101A803F0BEFA48F23040D5
:10129000009001AB00224FF483716C20FEF765FFD4
:1012A0001CBDFFF7F4B8FEF74CBFFEF754BF704704
:1012B0004E0000005700000043000000253033645A
:1012C0000000000044256400253032644000000026
:1012D00010B504463E493FA003F086FA21463FA0E0
:1012E00003F082FA40A003F07FFA9CB1012C50D0A9
:1012F000022C29D0032C4CD1002000F09BF810F0D8
:10130000FF0F3ED00021084600F098F8BDE81040DD
:1013100000F081B8012000F08DF8032801D30021EE
:1013200001E0401C81B2012000F088F8012000F0AB
:1013300081F8C0B2FFF790FF012000F07BF8BDE814
:101340001040C0B2FFF784BE012000F073F868B10E
:1013500003281ED10421012000F070F8012000F0C4
:1013600069F8BDE81040C0B2FFF776BFFFF745FD52
:1013700000210220FFF7E4FEBDE810400220FFF745
:101380001BBF0121002000F059F8BDE8104000F01B
:1013900033B810BD10B500F04AF80120FFF70CFF7C
:1013A00012A0FFF720FF0020FFF728FF0020FFF723
:1013B00053FF6020FFF762FF0E48FFF745F9012158
:1013C000BDE81040002000F039B800F031B800004E
:1013D0008BA1000825733A20000000006576656E39
:1013E00074202564000000000A0000003030303115
:1013F00030323300D112000810B502210120FFF76E
:101400009FFE012000F016F8C0B2FFF721FEBDE8F4
:101410001040FFF748BF10B500210846FFF790FEC7
:101420000020FFF715FEBDE81040FFF73EBF7047F4
:1014300070470000044931F810007047024A22F852
:1014400010107047704770470203002013B5012247
:101450006946002000F01BFC00981CBD3F48704707
:101460003F4870473EB504463D482168401E40F85D
:10147000011FA188818039493AA0083103F0B4F9ED
:10148000E078627921798DE80700A3786278217885
:1014900036A003F0A9F9BDE83E403CA003F0A4B992
:1014A000FFF7ABBC3AA0704744F2E430704700F05D
:1014B00042B970B52A4D04466D1E2878A04202D06C
:1014C000204600F041F92C7070BD1FB500F041F9C5
:1014D0004FF4E13002900020ADF80000ADF80400B8
:1014E000ADF802006946039000F01CFB00F05EF8C6
:1014F000FFF7ADF8FFF725F9FFF778F9FFF7D1FE11
:10150000FFF7BBFCFFF7B7FDFFF732FEFFF742FF27
:10151000124914A0163103F067F9104920A003F016
:1015200063F904B019A0BDE8104003F05DB910B52F
:1015300000F02CF900F086F8FFF7A1F8FFF727F983
:10154000FFF758F9FFF7DFFCFFF799FDFFF713FEF0
:10155000FFF7ADFEBDE81040FFF737BF9DA10008C3
:101560001900002025733A20000000002530327851
:101570003A253032783A253032783A253032783A86
:10158000253032783A253032780000000A00000019
:101590004465762E467269426F782E636E000000B5
:1015A00076657273696F6E2025730000704710B501
:1015B000044600784108CA0707D000F0B9F8606017
:1015C000D4E90210BDE810400847490703D420F0D1
:1015D00001002070F4E74FF6FF706080F0E700280C
:1015E00003D0017821F00101017070472DE9F0412D
:1015F0001646024600241E4D204605EB00173F7894
:10160000FF0716D0401C0A28F7DBCCB1C4E902233F
:10161000618000F08DF86060207866F347002070EC
:101620004008800702D52046FFF7C1FF2046BDE8ED
:10163000F08105EB0014207840F001002070E4E711
:101640000020F4E770B50A4E002406EB0415287854
:10165000C00709D000F06CF86968401A69888842B0
:1016600002D92846FFF7A3FF641C0A2CEDDB70BDEE
:101670001003002070472DE9F0410025DFF88C8031
:101680002F4658F825405CB100F052F80646207805
:10169000E1680128204608D08847207001280ED034
:1016A0006D1C052DEDDBBDE8F08188472070616879
:1016B0000246A368711A204698470028F0D0677048
:1016C0006660EDE730B5114C002354F8235025B186
:1016D0005B1C052BF9DB002030BD44F82300002300
:1016E000437003704360C0E90212012030BD10B5A1
:1016F0000021064A0B4652F82140844201D142F8AB
:101700002130491C0529F6DB10BD0000B003002084
:1017100000245B495BA003F067F85BA003F064F86A
:101720005AA003F061F8641CE4B20A2CF1D3FEE77E
:101730005748406870475649400008707047544801
:101740004168491C4160704708B162B6704772B683
:10175000704710B502F00EFC00F051F800F083F96C
:1017600000F098F800F024FA00F0A5F900F081FBF1
:1017700000F0B1FB00F024FD0021232000F05AF915
:101780000021BDE81040232000F045B910B500F05D
:101790007DFA00F069F900F0C2F900F018FC00F0E1
:1017A0007AF800F01FFDBDE81040AFF3008010B5DF
:1017B000374C60782178884213D2D4E90101401A6D
:1017C000C8281BD9232000F019F940B1002123209B
:1017D00000F021F96068A0606078401C0DE00121F4
:1017E000F5E70121232000F016F9D4E90101401AA0
:1017F00040F2DC51884201D90020607010BD10B564
:101800000121084601F0B6FA0121042001F0BBFADB
:101810000121082001F0B7FA0121102001F0B3FAEC
:101820000121202001F0AFFA01218C03204601F0B4
:10183000AAFA0121480401F0AFFA0121880401F05D
:10184000ABFA0121084601F09EFA0121C80201F01D
:101850009AFA0121084601F09FFA0121022001F0C5
:101860009BFA0121042001F097FA0121080301F0FD
:101870008AFA2046BDE81040012101F08DBA00002F
:10188000C1A1000825733A20000000000A000000F2
:1018900020000020704770472DE9F04117460C46A4
:1018A000064600F00AFE342001F017F85CB3BD08CC
:1018B00027E04FF0000113D107F00300012803D007
:1018C000022801D0032814D1401E12D4225C0A43FE
:1018D0001146012801DD1102F6E7C2009140F3E74D
:1018E0000320225C401E0A4311020128F9DA207805
:1018F00001433046241D00F0B8FE042800D1361DF7
:101900006D1E002DD5DCBDE8F04100F0E2BD2DE9F3
:10191000F043ADF2044D0D4606460024C2F387277E
:10192000C2F309094FF480680DE005EB84214246BB
:10193000684602F07BFB06EB842042466946FFF7CF
:10194000ABFF641CE4B2BC42EFD3B9F1000F11D07D
:10195000FF2247464146684602F07AFB05EB8421A8
:101960004A46684602F062FB06EB84203A46694626
:10197000FFF792FF0DF2044DBDE8F08370B5054608
:1019800000F09BFD0024342000F0A7FF284600F063
:10199000CEFD042803D0641CE4B20A2CF3D3BDE8C6
:1019A000704000F096BD0B460146184692B202F018
:1019B0003DBB024902A002F017BF0000D3A10008FE
:1019C000257320456E7472792121210A00000000E0
:1019D0000009062810D2DFE800F0030507090B0D07
:1019E0002548704725487047254870472548704767
:1019F00025487047254870472548704770B505460B
:101A000000F033F804462846FFF7E2FF2146BDE820
:101A1000704001F026B870B50C46064600F025F877
:101A200005463046FFF7D4FF22462946BDE8704000
:101A300001F02FB838B50D4604465F2810D800F0E5
:101A400014F8ADF8000003208DF802004DB14820D5
:101A50008DF803002046FFF7BBFF694600F0ABFF9F
:101A600038BD1020F4E77047704700F00F000121E7
:101A7000814088B27047000000080140000C01401E
:101A8000001001400014014000180140001C0140FA
:101A90000020014010B5224C0121204602F05BF8E5
:101AA000002807D00121204602F06BF8BDE8104065
:101AB000FFF745BE10BD7FB540F2E330ADF8000042
:101AC00047200024ADF80400154DADF80240ADF8F4
:101AD00006408DF808406946284601F075FB4FF432
:101AE000C06000F095FB19218DF80C1001208DF8D5
:101AF0000F008DF80D4002208DF80E0003A800F0B5
:101B00008CFB0121284602F03CF8012211462846B0
:101B100001F017FE0121284601F0FEFD7FBD704750
:101B2000002C01407FB506460C46684602F0AFF82F
:101B3000CEB3012E3AD0022E34D18C4D8C4800EB1E
:101B4000061194E84D0081E84D000021284602F07E
:101B5000BEF840F2255600223146284602F0C1F870
:101B6000A06800906088ADF804002088ADF80800F7
:101B70000020ADF806000C20ADF80A00A088ADF8F2
:101B80000C006946284602F02FF83146284602F03C
:101B90007EF901223146284602F0A3F801212846A9
:101BA00002F095F87FBDFFE7724DC7E7724DC5E7BC
:101BB0002DE9FC414FF4C06000F02AFB25208DF890
:101BC000040000258DF8055001248DF806408DF89D
:101BD000074001A800F021FB26208DF804008DF8B5
:101BE00005508DF806408DF8074001A800F015FB60
:101BF00027208DF804008DF805508DF806408DF8EB
:101C0000074001A800F009FB6002ADF800001825AC
:101C1000DFF868818DF8035003268DF8026069466D
:101C2000404600F0C8FEA702ADF8007004248DF80D
:101C300003406946404600F0BEFEADF800408DF816
:101C400003508DF802606946404600F0B4FE08205B
:101C5000ADF800008DF803406946404600F0ABFE49
:101C6000ADF800708DF80350454D8DF8026069465F
:101C7000284600F0A0FE6102ADF800108DF8034088
:101C80006946284600F097FEBDE8FC8170472DE9C3
:101C9000F04116460F4620B1012804D0334D0024F0
:101CA0000FE0344DFBE7344DF9E7395D284602F08B
:101CB00064F84021284602F0C1F80028F9D0641CDD
:101CC000A4B2B442F1D3BDE8F08138B5294C40F25A
:101CD00025552946204602F0BBF800280FD029469A
:101CE000204602F0D4F8204602F04BF88DF80000B0
:101CF0001F48C268002A02D001216846904738BDBB
:101D000038B51D4C40F225552946204602F0A0F872
:101D100000280FD02946204602F0B9F8204602F0EC
:101D200030F88DF800001248C269002A02D0012163
:101D30006846904738BD38B50C4C40F225552946C9
:101D4000204602F085F800280FD02946204602F0F0
:101D50009EF8204602F015F88DF800000448C26A8B
:101D6000002A02D001216846904738BD0048004053
:101D7000C403002000380140004400400008014036
:101D8000000C0140012813D1444841B1012909D078
:101D900002290AD003290BD1114601F0C4BE114615
:101DA00001F0BBBE114601F0BABE114601F0B9BE4A
:101DB00070472DE9F04188B00C46012856D16320C8
:101DC000ADF814004720ADF810000020DFF8CC80FB
:101DD000ADF81600ADF812008DF8180004A94046C1
:101DE00001F0F2F90121404601F0CBFE0022012171
:101DF000404601F0A6FC6025ADF800500126022700
:101E0000ADF80260ADF80640ADF80870694640468E
:101E100001F013FAADF80050ADF80260ADF80640DD
:101E2000ADF808706946404601F03CFAADF8005044
:101E3000ADF80260ADF80640ADF80870694640465E
:101E400001F06CFAADF80050ADF80260ADF8064054
:101E5000ADF808706946404601F09AFA0121404603
:101E600001F05AFC0121404601F060FC08B0BDE8D9
:101E7000F08108B501210A4800F028FE4FF4707087
:101E8000ADF8000018208DF8030003208DF8020043
:101E90006946044800F08FFD08BD7047000400400B
:101EA000000C1A000010014070B5574A5066D16509
:101EB000554C01215834204600F099FA4FF4003572
:101EC000284600F0ACFA0028FAD02046BDE8704061
:101ED000002100F08CBA2DE9F04792B0E020ADF877
:101EE000400003258DF8425018268DF8436010A954
:101EF000464800F060FD0024DFF814A1ADF8004072
:101F00004FF48277ADF80440ADF808404FF4007804
:101F1000ADF80C404FF00709ADF80270ADF806407F
:101F2000ADF80A80ADF80E40ADF810906946504605
:101F300000F09CFF0121504601F014F84FF460407E
:101F4000ADF840008DF842508DF8436010A931483B
:101F500000F031FD304DADF80040ADF80440ADF873
:101F60000840ADF80C40ADF80270ADF80640ADF891
:101F70000A80ADF80E40ADF810906946284600F092
:101F800075FF214E5836304600F09AF9224805A9CF
:101F90000C30CDE905041020CDE907048020CDE9FF
:101FA00009400B944FF440500C94CDE90D4030465D
:101FB0000F9400F0F2F901220221284600F0F2FF0E
:101FC0000121284600F0CEFF12B0BDE8F08770472F
:101FD00070B50D46A8B1104C0221204601F02EF834
:101FE0000028F9D02946204600F0E4FF01212046D0
:101FF00001F024F80028F9D0204600F0DDFFC0B23F
:1020000070BD034CE8E700000000024000080140FA
:1020100000300140000C014000380040FEB505468C
:1020200000244FF080462146304601F075FB022027
:10203000ADF804000020ADF80000ADF80600ADF8E2
:1020400002008DF808006946304601F0BDF8012114
:10205000304601F096FD0121304601F05DFB08E0BD
:10206000318A3046C90704D0012101F08AFD641C81
:10207000E4B2AC42F4D303B03046BDE8F0400021F6
:1020800001F04ABBFEB5054600244FF080462146CC
:10209000304601F041FB4720ADF8040040F2E73044
:1020A000ADF800000020ADF80600ADF802008DF894
:1020B00008006946304601F087F80121304601F0FA
:1020C00060FD0121304601F027FB08E0318A3046EF
:1020D000C90704D0012101F054FD641CA4B2AC4234
:1020E000F4D303B03046BDE8F040002101F014BB4A
:1020F000FEB5054600244FF080462146304601F0EB
:102100000BFB4720ADF804000020ADF80000ADF84F
:102110000600ADF802008DF808006946304601F06F
:1021200053F80121304601F02CFD0121304601F029
:10213000F3FA08E0318A3046C90704D0012101F0E2
:1021400020FD641CA4B2AC42F4D303B03046BDE819
:10215000F040002101F0E0BA704770472DE9F047E8
:102160002A4F814600254FF4807819F80560002435
:1021700006FA04F010F0800F4FF001024146384695
:102180000AD000F086FC00F02EF8002241463846C6
:1021900000F07FFC00BF09E000F07BFC00BF0022E4
:1021A0004146384600F075FC00F01DF8641CE4B2AE
:1021B000082CDDD36D1CEDB2032DD6D3BDE8F0871E
:1021C00010B500211820FFF735FC01211920FFF779
:1021D00031FC00211820FFF71EFCBDE810406420F0
:1021E000FFF786BF704700BF00BF00BF00BF00BF42
:1021F00000BF00BF00BF00BF00BF00BF00BF00BFE7
:1022000000BF00BF00BF00BF70470000000C0140CE
:102210002849084328490860704730B50F23C27821
:1022200001780125F2B1244A126801F1E02102F49B
:10223000E062C2F5E062120AC2F10404D3404278BF
:10224000A24084781C401443220181F800240078C5
:1022500000F01F018D404009800000F1E020C0F82F
:10226000005130BD01F01F0085404809800000F199
:10227000E020C0F8805130BD104A114001430E48A3
:10228000001F016070470C4A121D0029116801D01F
:10229000014300E08143116070474FF0E0210428C2
:1022A000086903D020F004000861704740F0040082
:1022B000FAE700000000FA050CED00E080FFFF1FC8
:1022C00001684FF6FE72114001600021016041601B
:1022D0008160C1606A496A4A0839904203D14868FE
:1022E00040F00F0006E0664A1432904204D148687C
:1022F00040F0F00048607047614A2832904203D1B4
:10230000486840F47060F5E75D4A3C32904203D182
:10231000486840F47040EDE7594A5032904203D18A
:10232000486840F47020E5E7554A6432904203D192
:10233000486840F47000DDE7514A7832904203D19A
:10234000486840F07060D5E74E4A111F904203D1B3
:10235000086840F00F0006E04A4A1432904204D167
:10236000086840F0F00008607047464A2832904202
:1023700003D1086840F47060F5E7424A3C3290426D
:1023800003D1086840F47040EDE73E4A5032904275
:10239000EAD1086840F47020E5E730B5026847F6F6
:1023A000F0739A430C6A8B682343D1E904452C43AC
:1023B00023438C692343CC6923434C6A23438C6AAF
:1023C000234313430360CA6842600A688260496815
:1023D000C16030BD0021016041608160C160016168
:1023E00041618161C161016241628162704700297E
:1023F000016802D041F0010102E04FF6FE72114087
:1024000001607047002A026801D00A4300E08A4355
:102410000260704741607047406880B27047024672
:102420000020D10002D51749083901E014490839C4
:102430000968114200D001207047C10003D511493D
:10244000091F086070470E49083948607047024606
:102450000020D10002D50B49083901E008490839AC
:102460000968114200D001207047C10003D5054919
:10247000091F08607047024908394860704700002A
:102480000800024008040240FD4A116801F03801CA
:10249000014311607047FA490A6822F008020A6095
:1024A0000A6802430A607047F5490A6822F0100280
:1024B0000A600A6802430A607047F148F1494160C6
:1024C000F14941607047EE48EE494160EE49416094
:1024D0007047EB48016941F0800101617047E848AD
:1024E000016941F0800101617047E5490420CA6833
:1024F000D20701D001207047CA68520701D50220D7
:102500007047C968C906FBD50320704700B503466C
:10251000FFF7EBFF02E0FFF7E8FF5B1E012803D0A7
:10252000002B00D1052000BD002BF4D1FAE770B5D7
:1025300005464FF430263046FFF7E8FF042811D156
:10254000CF4C206940F0020020616561206940F0B5
:10255000400020613046FFF7D9FF216941F6FD7246
:102560001140216170BD30B54FF430252846FFF78A
:10257000CDFF042810D1C24C206940F00400206136
:10258000206940F0400020612846FFF7BFFF216925
:1025900041F6FB721140216130BD00B50346FFF7E3
:1025A000A4FF02E0FFF7A1FF5B1E012803D0002B70
:1025B00000D1052000BD002BF4D1FAE730B54FF46F
:1025C00030252846FFF7E9FF042810D1AC4C2069DC
:1025D00040F004002061206940F04000206128465E
:1025E000FFF7DBFF216941F6FB721140216130BD2D
:1025F000A3490020C969890700D50120704770B53B
:10260000A525FFF7F5FF00B100254FF43026304631
:10261000FFF77CFF042827D1994C9A48A0609A487C
:10262000A060206940F020002061206940F0400057
:1026300020613046FFF76AFF41F6EF7604280ED19D
:10264000206941F6DF7108402061206940F01000E8
:1026500020618E4805804FF40050FFF757FF052892
:1026600002D021693140216170BDF8B506460020D5
:102670004FF4005C00900D466046FFF747FF0428CA
:1026800016D17F4C206940F0010020613580604602
:10269000FFF73CFF41F6FE77042806D1B61C280C54
:1026A000009630806046FFF731FF21693940216193
:1026B000F8BDF0B506464FF400570D463846FFF713
:1026C00025FF04280CD16E4C206940F001002061E8
:1026D00035803846FFF71AFF2169BA1E1140216183
:1026E000F0BDF0B506464FF400570D463846FFF7EB
:1026F0000DFF042813D1624C6248A0606248A060BC
:10270000206940F01000206135803846FFF7FEFE5A
:10271000052804D0216941F6EF7211402161F0BD16
:102720002DE9F041C043C7B2C0F30726C0F3074507
:10273000040E4FF400584046FFF7E8FE04283CD151
:10274000DFF83CC14F49CCF808104F49CCF80810CD
:10275000DCF8101041F01001CCF81010FF2F07D05A
:102760004A48083007804046FFF7D0FE04281BD1B6
:10277000FF2E07D045480A3006804046FFF7C6FEC8
:10278000042811D1FF2D07D040480C300580404669
:10279000FFF7BCFE042807D1FF2C07D03B480E30C2
:1027A00004804046FFF7B2FE052806D0DCF8101082
:1027B00041F6EF721140CCF81010BDE8F08170B511
:1027C00005464FF430263046FFF7A0FE042818D106
:1027D0002B4C2C48A0602C48A060206940F02000C1
:1027E0002061206940F0400020613046FFF78EFEF6
:1027F00041F6DF71042805D0052802D022690A407D
:10280000226170BD206908402061206940F01000FD
:1028100020611E480DB1002100E0A5210180304655
:10282000FFF774FE0528ECD0216941F6EF721140E4
:10283000216170BDF0B5124C0746124816460D4690
:10284000A0601148A0604FF4005C6046FFF75EFE98
:10285000042814D1206940F01000206135430B4951
:102860003D43891C45F0F80008806046FFF74EFEA6
:10287000052804D0216941F6EF7211402161F0BDB5
:102880000020024023016745AB89EFCD00F8FF1F10
:102890001C48C069800870471A48006A7047194987
:1028A00000200968890600D501207047154A0029D3
:1028B000116901D0014300E0814311617047014675
:1028C0000020104A012903D0D2680A4203D1704780
:1028D000D169C907FBD0012070470A49C860704719
:1028E00008490420CA68D20701D001207047CA688D
:1028F000520701D502207047C968C906FBD50320DD
:1029000070470000002002408F4910B5884206D170
:102910000121042000F049FA002104203BE08B490A
:10292000884206D10121082000F03FFA002108204A
:1029300031E08749884206D10121102000F035FAA4
:102940000021102027E08349884206D10121202060
:1029500000F02BFA002120201DE07F49884206D19B
:102960000121402000F021FA0021402013E07B49A2
:10297000884206D10121802000F017FA0021802032
:1029800009E0774988420AD184150121204600F0E8
:102990000CFA00212046BDE8104000F006BA10BD38
:1029A00010B50121084600F000FA0021BDE81040F2
:1029B000012000F0FAB9F0B5CC78002204F00F0342
:1029C000E40601D58C7823430C784FF00F0C14F0FB
:1029D000FF0F4FF0010E1BD005680E880EFA02F4AF
:1029E0002640A64210D196000CFA06F725EA070702
:1029F00003FA06F5CE783D43282E02D0482E02D0A9
:102A000002E0446100E00461521C082AE5D305603D
:102A10000A88FF2A1CD94468002202F108060EFA2F
:102A200006F50E882E40AE420ED196000CFA06F73F
:102A3000BC4303FA06F7CE783C43282E00D145610B
:102A4000CE78482E00D10561521C082AE5D3446097
:102A5000F0BD4FF6FF710180022181700421C17029
:102A600070470246002092680A4200D00120704759
:102A7000806880B2704702460020D2680A4200D0C7
:102A800001207047C06880B27047016170474161A2
:102A900070470AB10161704741617047C16070477A
:102AA00041F480328261816182618169806970470D
:102AB0002C4B10B51A684FF68074224042EA001081
:102AC0000843186010BD2849C8617047F0B5254C0F
:102AD000002801DAE36900E06368450D2E0185B244
:102AE000C0F30157B540C0F30342032F05D0C6021F
:102AF0000AD503269640B34307E023F0706263686B
:102B000023F07063636002E0AB4343F0706201B195
:102B10002A43002801DAE261F0BD6260F0BD10B521
:102B20008A0721F003040F49120F21440F238C68F8
:102B300093409C438C608B68904003438B6010BD36
:102B40000949C1F8DC00704700080140000C014051
:102B5000001001400014014000180140001C014019
:102B6000002001400000014000002042A54801680B
:102B700041F0010101604168A34A114041600168D0
:102B8000A24A11400160016821F48021016041687E
:102B900021F4FE0141604FF41F01816070479949A3
:102BA0000A6822F480320A600A6822F480220A60ED
:102BB000B0F5803F07D0B0F5802F03D1086840F40E
:102BC000A02008607047086840F48030F9E70346A9
:102BD000002059098B4A01290AD002290AD0516ADA
:102BE00003F01F02012393400B4200D001207047E5
:102BF0001168F5E7116AF3E718B500204FF4A064F7
:102C000000903120FFF7E3FF0099491C0091A14299
:102C100001D00028F5D03120FFF7D9FF002800D0DF
:102C2000012018BD774A116821F0F80141EAC0007F
:102C300010607047764908607047724B5A680843C5
:102C400022F47C121043586070477149086670473F
:102C50006C4A516821F00301014351607047694893
:102C6000406800F00C007047664A516821F0F0019E
:102C7000014351607047634A516821F4E0610143A8
:102C8000516070475F4A516821F4605141EAC000C9
:102C9000506070475B4A0029517A01D0014300E03F
:102CA0008143517270475A49C1F8D8007047554A5C
:102CB000516821F44041014351607047514900225D
:102CC00081F8202081F82020012802D0042802D198
:102CD000052081F8200070474E4908607047494937
:102CE0000A6A02430A6270474A49443908607047D9
:102CF00030B5444A5168484B11F00C0103D0042907
:102D000001D0082901D0036012E05168536801F432
:102D100070114FF0020413F4803F04EB914102D094
:102D200053689B0301D53D4B00E03B4B5943016089
:102D300051680F2303EA1111394B5C5C0168E140D3
:102D400041605468072505EA14241C5D21FA04F447
:102D50008460546805EAD4241B5DD940C160526880
:102D6000032303EA92322E4B1B1F9A5CB1FBF2F154
:102D7000016130BD234A0029516901D0014300E0BF
:102D80008143516170471F4A0029916901D0014375
:102D900000E08143916170471A4A0029D16901D04E
:102DA000014300E08143D1617047164A0029D16890
:102DB00001D0014300E08143D1607047114A0029EE
:102DC000116901D0014300E081431161704711494D
:102DD0004039086070470E49C86470470949C87196
:102DE00070470848416A41F0807141627047054A66
:102DF0000146002092680A4200D001207047014934
:102E000088727047001002400000FFF8FFFFF6FED6
:102E1000000042428004424200127A0000093D0054
:102E200030000020994910B588420AD1841401214C
:102E30002046FFF7BAFF2046BDE810400021FFF70B
:102E4000B4BF9349884202D10121041404E091499E
:102E500088420AD10121C4132046FFF7AFFF204664
:102E6000BDE810400021FFF7A9BF10BD30B50288B2
:102E70004C8802F441530A88CD8822438C882C4325
:102E800022430C8922434C8922438C892243CC89DA
:102E900022431A430280828B22F400628283098AD1
:102EA000018230BDF0B505460C4602200021AA8BF8
:102EB00085B001264FF240031A40AA832884AF8BC5
:102EC000A268022A21D0A08800B102266846FFF736
:102ED0000FFFE1880098B1F5007F2CD07101B0FBA5
:102EE000F1F000EB8000A1684000B0FBF1F0401D64
:102EF00080B20A21B0FBF1F000F00101401A4FF658
:102F0000FF72C0F34F0002EA0121821EFE2A01D3A4
:102F100002200021E288084302432A842088618835
:102F2000A2890843A18811430843384340F4006054
:102F3000A88305B0F0BD000AD3E7002101804180DD
:102F40008180C180018141818181C181072101820C
:102F500070470021018041808180C180022282600F
:102F6000818170470029018802D041F0400101E0D1
:102F700021F04001018070470029818B02D041F48B
:102F8000806101E021F48061818370470909012398
:102F90008B40002A828899B201D00A4300E08A431C
:102FA00082807047002A828801D00A4300E08A4369
:102FB000828070478181704780897047A1F57E4289
:102FC0000188FF3A02D041F4807101E021F4807160
:102FD000018070470029818802D041F0040101E09E
:102FE00021F0040181807047028822F4006202808F
:102FF00002880A4302807047018841F480510180B1
:1030000070470029018802D041F4005101E021F409
:10301000005101807047012901D0008B7047808AE0
:103020007047008A7047B1F5804F018803D021F4C2
:1030300080410180704741F48041FAE70246002058
:1030400012890A4200D001207047C94301817047AC
:1030500030B501F00F030125024605FA03F4002004
:10306000A3B2090905FA01F49188A4B2128921409A
:103070001A4202D0002900D0012030BD01F00F0219
:1030800001219140C9430181704700000030014097
:1030900000380040003C0040F94910B5884202D198
:1030A0000121C41486E0B0F1804F09D0F54988426F
:1030B0000DD101210220FFF781FE0021022064E0F2
:1030C00001210846FFF77AFE002101205DE0EE496C
:1030D000884206D101210420FFF770FE0021042060
:1030E00053E0EA49884206D101210820FFF766FE35
:1030F0000021082049E0E649884206D1012110203C
:10310000FFF75CFE002110203FE0E249884206D133
:1031100001212020FFF752FE0021202035E0DE496A
:10312000884202D10121441444E0DC49884202D1A2
:103130000121CC043EE0DA49884202D101210C058C
:1031400038E0D849884202D101214C0532E0D64905
:10315000884206D101214020FFF730FE00214020A7
:1031600013E0D249884206D101218020FFF726FED4
:103170000021802009E0CE4988420AD1841501212E
:103180002046FFF71BFE00212046BDE81040FFF758
:1031900015BEC849884202D101210C040AE0C64983
:1031A000884202D101214C0404E0C44988420AD17A
:1031B00001218C042046FFF7F8FD2046BDE81040B1
:1031C0000021FFF7F2BD10BD30B50288AC4CB24D06
:1031D000A0420DD0A8420BD0B0F1804F08D0A94B2F
:1031E000984205D0A84B984202D0A84B984203D1F0
:1031F00022F070034A881A43A54B984206D0A54B8B
:10320000984203D022F44073CA881A4302808A8805
:1032100082850A880285A0420AD0A84208D0A54A21
:10322000904205D0A44A904202D0A44A904201D1D3
:10323000097A01860121818230BD30B5028C22F0ED
:1032400001020284028C8388048B22F0020224F0A3
:1032500073050C882C430D8915434A882A43884DF1
:10326000A8420BD08C4DA84208D0924DA84205D060
:10327000914DA84202D0914DA8420DD122F00805EF
:103280004A8923F440732A4322F004058A882A439A
:103290008D891D43CB892B4383800483C988818614
:1032A000028430BD70B5028C22F010020284028CC0
:1032B0008388048B0D8824F4E6464FF6FF7404EAF5
:1032C000052535430E8922F0200204EA061616432E
:1032D0004A8804EA02123243694EB04202D06E4E6E
:1032E000B04215D122F080064A8923F4406304EAF3
:1032F0000212324322F040068A8804EA0212324364
:103300008E8904EA86061E43CB8904EA830333438D
:1033100083800583C9880187028470BD70B5028CE3
:1033200022F480720284028C8388848B0D8824F0BE
:10333000730425430E894FF6FF7422F4007204EAE9
:10334000062616434A8804EA022232434C4EB04213
:1033500002D0514EB04215D122F400664A8923F4BE
:10336000405304EA0222324322F480668A8804EA47
:10337000022232438E8904EA06161E43CB8904EAF0
:103380000313334383808583C9888187028470BD9A
:1033900070B5028C22F480520284058C8288838B63
:1033A0000C8823F4E6464FF6FF7303EA0424344303
:1033B00025F400560D8903EA053535434E8803EAA6
:1033C00006362E432E4DA84202D0334DA84205D1D9
:1033D00022F480458A8903EA82122A438280848308
:1033E000C988A0F84010068470BD828B22F4406228
:1033F0008283828B4FF6FF7303EA01210A438283A3
:103400007047828B22F00C028283828B0A43828374
:103410007047028B22F440620283028B4FF6FF73E7
:1034200003EA01210A4302837047F0B5048C24F0BB
:1034300010040484078B048C4FF6FF7527F4734740
:1034400005EA03333B4305EA02221A430C4B05EA23
:10345000011698420ED0104B98420BD0B0F1804F1D
:1034600008D0084B984205D0074B984202D0074B32
:10347000984225D124F02001314341F0100124E08D
:10348000002C01400004004000080040000C0040F7
:10349000001000400014004000340140004C014086
:1034A000005001400054014000180040001C004042
:1034B000002000400040014000440140004801401D
:1034C00024F0A0030B4343F0100102830184F0BDFC
:1034D000028B22F00C020283028B0A4302837047A4
:1034E00070B5048C24F001040484058B048C4FF621
:1034F000FF7606EA0313134325F0F305F84A2B433E
:1035000090420ED0F74A90420BD0B0F1804F08D0D5
:10351000F54A904205D0F54A904202D0F44A9042D2
:1035200002D124F0020201E024F00A020A4342F030
:1035300001010383018470BD2DE9F84F0D46044657
:103540000888E74FDFF89CC3DFF89C83DFF89C9383
:103550004988AA882B894FF0804A48B304282FD085
:103560004FF6FF760828934632D0208C9E4620F4F2
:1035700080502084A38B208C06EA0132009223F431
:10358000734306EA0B221A4306EA0E331343BC4286
:103590000AD0644508D0544506D0444504D04C4573
:1035A00002D0D34A944242D120F40050009940E026
:1035B0002046FFF795FFE9882046BDE8F84F87E7EA
:1035C0002046FFF732FFE9882046BDE8F84F20E7A4
:1035D000208C20F480702084B4F81CE0208C06EA53
:1035E000031306EA01222EF0F30E43EA0B0343EA2B
:1035F0000E030092BC420AD0644508D0544506D060
:10360000444504D04C4502D0B94A944203D120F439
:103610000070009901E020F42060084340F48070BD
:10362000A3832084E9882046BDE8F84FE9E620F42A
:103630000240084340F48050A3832084E988204658
:10364000BDE8F84FD1E62DE9F0410C460026498847
:103650000746012501B90226A288012A00D10225C8
:10366000208823890028384610D0FFF7DEFEE18845
:103670003846FFF7CEFE23892A4631463846FFF703
:103680002FFFE1883846BDE8F04121E7FFF728FF2A
:10369000E1883846FFF71CFF23892A463146384621
:1036A000FFF7C3FEE1883846BDE8F041B1E610B54A
:1036B0000A884B88CC881A438B8823431A430B898A
:1036C0001A434B8989891A430A43A0F8442010BD44
:1036D0004FF6FF71818000210180C180418001721D
:1036E00070470021018041808180C180018141813A
:1036F0008181C18170470021018041800122828047
:10370000C180018170470021018041808180C1809A
:1037100001814181818170470029018802D041F0F7
:10372000010101E021F0010101807047002930F81A
:10373000441F02D041F4004101E0C1F30E010180B9
:103740007047002A828901D00A4300E08A438281BF
:103750007047818270471143A0F848107047002AD3
:10376000828901D00A4300E08A438281704701893F
:1037700021F0070101817047028922F070020A439B
:103780000281704700B50346FFF7F6FF188940F045
:103790000700188100BD70B516460D466029044625
:1037A0004FF0010231460AD0FFF79AFE2946204623
:1037B000FFF7E2FF208940F00700208170BDFFF78E
:1037C00034FEF3E730B504894FF6FF7505EA0323AD
:1037D0001343E4B20B432343038130BD10B50446C9
:1037E000FFF7F0FF208940F07700208110BD10B571
:1037F0000446FFF7E7FF208940F48040208110BD98
:10380000018582827047028822F070020A4302809A
:10381000704770B50589048B068C25F007050D43AC
:103820004FF6FC410C4040F201110C434FF6FF7182
:1038300001EA031126F02206114331430581048376
:10384000018470BD028B22F070020A43028370472C
:10385000028B4FF6FF7322F4E04203EA0121114389
:1038600001837047828B22F070020A438283704783
:10387000828B4FF6FF7322F4E04203EA01211143E9
:10388000818370470029018802D041F0800101E066
:1038900021F08001018070470029818802D041F029
:1038A000040101E021F00401818070470029818832
:1038B00002D041F0080101E021F008018180704749
:1038C0000029818802D041F0010101E021F00101CD
:1038D00081807047028B22F008020A4302837047FE
:1038E000002C01400034014000040040000800406A
:1038F000000C0040028B4FF6FF7322F4006203EAD3
:10390000012111430183EAE7828B22F008020A4376
:103910008283E4E7828B4FF6FF7322F4006203EAAE
:10392000012111438183DAE7028B22F004020A436A
:103930000283D4E7028B4FF6FF7322F4806203EA1E
:10394000012111430183CAE7828B22F004020A435A
:103950008283C4E7828B4FF6FF7322F4806203EA0E
:10396000012111438183BAE7028B22F080020A43CE
:103970000283B4E7028B4FF6FF73C2F30E0203EA31
:10398000012111430183AAE7828B22F080020A43BE
:103990008283A4E7828B4FF6FF73C2F30E0203EA21
:1039A0000121114381839AE7028C22F002020A432B
:1039B000028494E7028C22F008020A4302848EE714
:1039C000028C4FF6FF7322F0200203EA011111432B
:1039D000018484E7028C4FF6FF7322F0800203EA31
:1039E0000111114301847AE7028C4FF6FF7322F430
:1039F000007203EA01211143018470E7028C4FF643
:103A0000FF7322F4006203EA01211143018466E797
:103A1000028C4FF6FF7322F4005203EA0131114386
:103A200001845CE710B50123048C8B409C43048423
:103A3000038C8A401343038410BD10B50423048C07
:103A40008B409C430484038C8A401343038410BD41
:103A500030B50124058C00F118038C40A543058482
:103A600089B108290FD0091FC1F34E00184401681D
:103A700021F4E041016001684FF6FF7303EA02227E
:103A80001143016030BD03EB5100016821F070016A
:103A900001600168F4E70029018802D041F00201C9
:103AA00001E021F00201018019E70029018802D01C
:103AB00041F0040101E021F0040101800FE7002939
:103AC000818802D041F0800101E021F080018180F5
:103AD00005E7028822F00802028002880A43028079
:103AE000FDE6828822F07002828082880A4382800A
:103AF000F5E6028922F00702028102890A43028167
:103B0000EDE6028922F08002028102890A430281E5
:103B1000E5E68184E3E68185E1E68186DFE60187EB
:103B2000DDE68187DBE6A0F84010D8E6028822F4C3
:103B30004072028002880A430280D0E6808ECEE680
:103B4000008FCCE6808FCAE6B0F84000C7E6808CD4
:103B5000C5E6008DC3E602460020128A0A4200D064
:103B60000120BCE6C9430182B9E602460020138A5F
:103B700092890B4202EA010202D0002A00D0012001
:103B8000ADE6C9430182AAE6C44910B588420AD10C
:103B900001218C032046FFF708F92046BDE81040BC
:103BA0000021FFF702B9BE49884202D101214C042D
:103BB00010E0BC49884202D101218C040AE0BA49D4
:103BC000884202D10121CC0404E0B84988420AD1DC
:103BD00001210C052046FFF7F1F82046BDE8104012
:103BE0000021FFF7EBB810BD30B50446008A85B060
:103BF0000D464CF6FF710840E98801432182A089F7
:103C00004EF6F3110840A9882A8911436A890243B4
:103C10001143A181A08A4FF6FF410840A9890143C1
:103C2000A1826846FFF764F89C48844201D103985A
:103C300000E00298A189090400EBC00101EB00102B
:103C4000296801D5490000E08900B0FBF1F0642249
:103C5000B0FBF2F109010B096FF018056B4300EBA3
:103C60008300A3891D044FF0320306D503EBC00087
:103C7000B0FBF2F000F0070005E003EB0010B0FB32
:103C8000F2F000F00F000843208105B030BD4FF482
:103C90001651016000218180C18001810C22428186
:103CA0008181704710B5028A4FF2FF031A400B88DA
:103CB0004C8823438C88C9880C43234313430382D5
:103CC00010BD0021018041808180C18070470029A2
:103CD000818902D041F4005101E021F40051818139
:103CE000704710B5C1F3421301F01F040121A14038
:103CF000012B07D0022B07D01430002A026805D010
:103D00000A4304E00C30F8E71030F6E78A4302601B
:103D100010BD002A828A01D00A4300E08A438282D1
:103D20007047028A22F00F020282028A0A4302824C
:103D30007047828922F40062828182890A438281EB
:103D400070470029818902D041F0020101E021F091
:103D5000020181817047028A22F020020282028AD7
:103D60000A43028270470029018A02D041F480414F
:103D700001E021F4804101827047C1F30801818094
:103D800070478088C0F308007047818941F00101C5
:103D900081817047028BD2B20283028B42EA0121F9
:103DA00001837047028B02F47F420283028B0A4335
:103DB000028370470029818A02D041F0200101E08E
:103DC00021F02001818270470029818A02D041F0D0
:103DD000100101E021F01001818270470029818AE1
:103DE00002D041F0080101E021F008018182704712
:103DF0000029818902D041F4004101E0C1F30E01A4
:103E0000818170470029818A02D041F4006101E07C
:103E100021F4006181827047828A22F0040282824A
:103E2000828A0A43828270470029818A02D041F047
:103E3000020101E021F00201818270470246002068
:103E400012880A4200D001207047C94301807047A0
:103E500070B501F01F0501260024C1F3421306FAD4
:103E600005F2012B0FD0022B0FD0838A4FEA1121CC
:103E70000088134206FA01F600EA060001D000B1FC
:103E80000124204670BD8389F0E7038AEEE70A0A21
:103E900001219140C9430180704700000038014072
:103EA0000044004000480040004C004000500040EA
:103EB0000648804706480047FEE7FEE7FEE7FEE7C4
:103EC000FEE7FEE7FEE7FEE7FEE7FEE7753F0008D8
:103ED000ED0000080CB500224C48009201920168E8
:103EE00041F4803101604FF4A063016801F40031B6
:103EF00001910099491C0091019911B900999942C9
:103F0000F3D10168890333D50121019140490A6841
:103F100042F010020A600A6822F003020A600A688E
:103F200042F002020A6041684160416841604168B4
:103F300041F480614160416821F47C114160416835
:103F400041F4E8114160016841F08071016001684D
:103F50008901FCD5416821F003014160416841F0CD
:103F6000020141604168C1F381010229FAD10CBD0F
:103F700001920CBD254810B5016841F001010160B6
:103F80004168244A114041600168234A11400160A0
:103F9000016821F480210160416821F4FE01416043
:103FA0004FF41F018160FFF795FF1C494FF000603F
:103FB000086010BD154A10B55068194B10F00C017F
:103FC000184803D0042901D0082901D0036012E069
:103FD0005168536801F470114FF0020413F4803FEC
:103FE00004EB914102D053689B0301D50E4B00E0D6
:103FF0000B4B5943016051680A4AC1F30311121D6A
:10400000515C0268CA40026010BD0000001002400E
:10401000002002400000FFF8FFFFF6FE08ED00E080
:1040200000127A004000002000093D0040EA010330
:104030009B0703D009E008C9121F08C0042AFAD25E
:1040400003E011F8013B00F8013B521EF9D2704722
:10405000D2B201E000F8012B491EFBD270470022CA
:10406000F6E710B513460A4604461946FFF7F0FF77
:10407000204610BD30B505462A460B4612F8010B06
:1040800013F8014B08B1A042F8D01CB1002802D0AF
:104090006D1CF1E7284630BDCAB2401E10F8011F62
:1040A0008A4202D00029F9D100207047421C10F842
:1040B000011B0029FBD1801A70472DE9F04791467A
:1040C0000F4680460446002614F8015B2DB100F02F
:1040D0005FF90068405DC007F6D12B2D02D02D2D71
:1040E00018D0641E4A463946204600F055F927B1DB
:1040F0003968A14201D1C7F8008071054FF0020470
:104100000BD54042002803DD00F0A6FB0460A007A9
:10411000BDE8F08746F48066E4E70028F8DA00F0AE
:104120009BFB04606FF00040F2E72DE9FE4F8046F4
:1041300081EA0300C00F0C46009021F0004123F0FB
:104140000045B8EB0200A94105D240462146904601
:104150001C460B46024623F00040104347D0270D73
:10416000C7F30A00C3F30A510290401A0190402895
:104170006BDAC3F3130040F4801B0098924620B121
:104180000023D2EB030A63EB0B0B01985946C0F1F5
:104190004002504600F0CBF806460D4650465946C0
:1041A000019A00F0E3F810EB08006141002487EA6F
:1041B000115284EAE7731A4340D0009A62B3019A1D
:1041C000012A4FEA075215DC001B61EB02014FF098
:1041D000004202EA0752CDE90042001C41F580117D
:1041E00032462B4600F034F903B0BDE8F08F40466C
:1041F0002146F9E7001B61EB0201001C41F5801329
:1042000000185B412018A2F5001747EB030140EAB4
:10421000D570B6196D4111E06D084FEA360645EAD2
:10422000C0754FEA0752001B61EB0201001C41F50B
:10423000801149084FEA30000019514132462B469F
:1042400003B0BDE8F04F00F0F6B80098012240003E
:104250000023D0EB020263EBE073009821464FEAA3
:10426000E074B8EB000061EB0401E9E783F0004380
:104270005BE781F0004158E70EB5C10F80EAE070BE
:104280000844CA07002140F233438DE80E000A4675
:104290000B4600F0DDF803B000BDC1F30A5210B5C3
:1042A000C1F3130140F2FF3341F480119A4201DA65
:1042B000002010BD40F233439A42A2F2334203DCA5
:1042C000524200F043F810BD904010BD2DE9F05F60
:1042D0000546002092469B46884606468146402475
:1042E0001BE0284641464746224600F02FF8534639
:1042F0005A46C01A914110D311461846224600F082
:1043000016F82D1A67EB01084F46224601200021BE
:1043100000F00DF817EB00094E41201EA4F1010436
:10432000DFDC484631462A464346BDE8F09F202A56
:1043300004DB203A00FA02F1002070479140C2F1FC
:10434000200320FA03F3194390407047202A04DB2E
:10435000203A21FA02F00021704721FA02F3D040FE
:10436000C2F120029140084319467047202A06DB1B
:10437000CB17203A41FA02F043EAE07306E041FA33
:1043800002F3D040C2F12002914008431946704721
:1043900000487047FCA200082DE9F05F82460078D3
:1043A000002715468B460AF10104B946302801D092
:1043B0009DB113E014F8010B0127782803D0582889
:1043C00001D045B10AE00DB1102D07D1002710250D
:1043D00014F8010B02E0082500E00A250026B0468B
:1043E0000EE005FB080005FB06F1012701EB104676
:1043F0001FFA80F8B6F5803F00D3B94614F8010BD8
:10440000294600F091F90028EBDABBF1000F05D046
:104410000FB1641E00E05446CBF80040B9F1000F24
:1044200006D000F019FA02210160C81EBDE8F09F15
:1044300048EA0640FAE710B5002B08DA401C41F1C3
:10444000000192185B411A4301D120F0010010BD18
:104450002DE9F04D92469B4611B1B1FA81F202E08E
:10446000B0FA80F220329046FFF761FF04460F4613
:1044700040EA0A0041EA0B0153465A46084313D06A
:10448000114653EA010019D0C8F140025046FFF727
:104490005DFF05460E46504659464246FFF747FF28
:1044A000084305D0012004E020463946BDE8F08DE0
:1044B0000020054346EAE0762C4337430A9863051B
:1044C000E40AA0EB08000022FD0A44EA47540A303F
:1044D00002D500200146E9E7010510196941DDE92F
:1044E000084500196941BDE8F04DA4E72DE9FE4FEC
:1044F00081EA030404F0004421F0004100944FF0ED
:10450000000B23F0004350EA01045ED052EA03049A
:104510005BD0C3F30A54C1F30A552C44A4F2F3341C
:104520000194A0FB0254C1F3130141F48011C3F3C1
:10453000130343F4801301FB024400FB034E840A7F
:10454000970A44EA815447EA8357A4FB0768029517
:104550008D0A05FB07854FEA932C04FB0C542705B5
:10456000029D4FEA065847EA1637B5EB08056EEB91
:10457000070C870E920E47EA811742EA8312A7FBC7
:104580000201B6EB0B0164EB00042B0D43EA0C3384
:104590005E1844EB1C50DA465146E7FB0201C5F3B6
:1045A00013044FEA0B3343EA14534FEA0432019CDD
:1045B00043EA0603A4F10C040294009CCDE900B484
:1045C000FFF746FF03B0BDE8F08F00200146F9E792
:1045D0002DE9F04D81EA030404F0004B21F0004581
:1045E00014464FF0000A23F0004150EA050220D0A3
:1045F00054EA01021DD0C5F30A570246C5F313035E
:10460000C1F31300C1F30A5640F4801543F480133C
:10461000A7EB0608101BD64608F2FD3873EB050021
:1046200002D308F1010801E092185B41B8F1000FD4
:1046300003DA00200146BDE8F08D00204FF4801120
:10464000064684460EE0171B73EB050705D3121BC5
:1046500063EB050306434CEA010C49084FEA3000BE
:1046600092185B4150EA0107EDD152EA030012D0E3
:1046700082EA040083EA0501084305D0101BAB4120
:1046800006D20122002306E000224FF0004302E0A0
:104690006FF0010253101AEB06004CEB085110EBBF
:1046A0000A0041EB0B01BDE8F04DFFF7C4BE70B549
:1046B00021F0004303430CD0C1F30A550024D5EB8D
:1046C000040564EB0403D617AD1AB34102DB0020E6
:1046D000014670BD201841EB025170BD30B5002974
:1046E00004DB4FF00044404264EB0101002B04DB8B
:1046F0004FF00044524264EB0303994208BF9042DA
:1047000030BD0000064C074D06E0E06840F00103B4
:1047100094E8070098471034AC42F6D3FBF7EAFC64
:1047200000A3000820A300083A2800D2303820F067
:104730002002412A01D3A2F13700884201D34FF071
:10474000FF3070472DE9F04D00231A461B1A8A41AD
:1047500003DB00200146BDE8F08DC1F30A52C1F32E
:10476000130141F480154FF0000BD10702D100185E
:104770006D41521E0027044640F2FF11384601EBFE
:10478000620A3E468046024600204FF48011FFF741
:10479000DDFDC2197141BB1846EB0100B4EB030CFF
:1047A00075EB000C04D3E41A65EB000517460E46C2
:1047B000241908F101006D4180463428E3DDF91920
:1047C00046EB0600091BA84103D24FF0FF32134607
:1047D00001E0002213461BEB070046EB0A51BDE83F
:1047E000F04DFFF728BE00000FB4054B10B503A92C
:1047F000044A029800F0A8F810BC5DF814FB000011
:104800004D140008540000200FB4084B10B504A943
:1048100002AA039800F098F8044602A9002000F0CC
:10482000C0FA204610BC5DF814FB0000A34D000840
:10483000490050EAC12018BF04204A0D18BF40F0BB
:10484000010040F2FF72B2EB515F08BF40F002007E
:10485000012808BF0520704700487047600000200D
:104860002DE9F0414F1E00EBC7010446D1E90001DC
:1048700015461E4637F006020DD02A463346FFF78E
:1048800035FE7F1E04EBC703D3E90023FFF74DFC81
:1048900037F00602F1D1022F25D0042F13D0062FB6
:1048A00018BFBDE8F0812A463346FFF71FFED4E962
:1048B0000A23FFF73AFC2A463346FFF717FED4E9EE
:1048C0000823FFF732FC2A463346FFF70FFED4E9F0
:1048D0000623FFF72AFC2A463346FFF707FED4E9F2
:1048E0000423FFF722FC2A463346FFF7FFFDD4E9F5
:1048F0000223FFF71AFC2A463346FFF7F7FDD4E9F7
:104900000023BDE8F041FFF710BC0000024A002080
:104910001107FFF7CCBE000001FDFFFF02E008C851
:10492000121F08C1002AFAD170477047002001E029
:1049300001C1121F002AFBD1704700000149086025
:1049400070470000600000202DE9FF4F8DB00F463A
:104950000546002606E025280BD0DDE90F1290471A
:104960006D1C761C28780028F5D111B03046BDE8C2
:10497000F08F0024A246A1460122EA4900E0044348
:1049800015F8013F203B02FA03F00842F7D12878DE
:104990002A2810D06FF02F022878A0F130010929C1
:1049A00014D80AEB8A0102EB410144F0020400EB47
:1049B000010A6D1CF0E701CF5FEA000A03D544F459
:1049C0000054CAF1000A44F002046D1C28782E2815
:1049D00017D115F8010F44F004042A280ED06FF007
:1049E0002F022878A0F1300109290AD809EB8901A2
:1049F00002EB410100EB01096D1CF2E757F8049B43
:104A00006D1C28786C280FD006DC4C2817D068283D
:104A10000DD06A2814D104E0742810D07A280FD160
:104A20000DE044F400140AE044F4801401E044F47E
:104A300040146978814202D104F580146D1C6D1C0C
:104A40002A786E2A1FD00CDC632A31D004DC002ABD
:104A50008BD0582A11D19FE0642A68D0692A0CD1E2
:104A600065E0732A2ED004DC6F2A73D0702A04D13B
:104A700097E0752A6FD0782A6ED01046DDE90F12C4
:104A80009047761C4CE1C4F30250022806D003285C
:104A900009D0042801CF09D0066041E101CFF11708
:104AA000C0E900613CE101CF068039E1067037E1E1
:104AB00017F8040B8DF8000000208DF80100EB467C
:104AC000012003E057F804BB4FF0FF3061074FF0BF
:104AD000000102D40DE008F10101884649450FDAD2
:104AE0008045F8DB1BF808100029F4D108E008F134
:104AF000010188468142FADB1BF808100029F6D133
:104B0000DDE90F23AAEB08008146214600F032F9C7
:104B1000304400EB080604E0DDE90F121BF8010B3E
:104B20009047B8F10108F7D221464846F3E00A2140
:104B3000C4F302534FF0000B0891022B04D001CFB5
:104B4000C117032B09D00AE0FF1D27F00707F7E87C
:104B5000020108E02EE01DE01EE000B2C117042BA8
:104B600001D140B2C117002907DA4FF0000CD0EB99
:104B70000C006CEB01012D2302E0230504D52B234F
:104B80008DF82430012303E0E30701D02023F7E769
:104B9000984656E00A210EE010204FF0000B0890D6
:104BA0000CE010214FF0000B44F004044FF0080912
:104BB000089103E008214FF0000B0891C4F3025361
:104BC000022B04D001CF0021032B06D006E0FF1DED
:104BD00027F00707F7E8020103E080B2042B00D1B9
:104BE000C0B24FF0000823072BD5702A07D0DDF89C
:104BF00020C08CF0100C5CEA0B0C05D00EE04023BA
:104C00008DF82430012308E050EA010306D0302358
:104C10008DF824308DF8252002239846DDF820C039
:104C20008CF0080C5CEA0B0C0BD150EA010301D1AB
:104C3000630706D530238DF824304FF00108A9F121
:104C40000109582A04D038A20B9208AA0A920BE054
:104C50003AA2F9E75B46089AFFF738FB0B9B9B5C8F
:104C60000A9A521E0A92137050EA0102F2D10A986F
:104C7000ADEB000000F1200B600702D524F4803476
:104C800001E04FF00109D94502DDA9EB0B0000E07E
:104C9000002000EB0B0141440890AAEB010AE0035D
:104CA00006D4DDE90F232146504600F063F80644A0
:104CB0004FF0000908E009A911F80900DDE90F1219
:104CC000904709F10109761CC145F4DBE0030CD5DE
:104CD000DDE90F232146504600F04CF8064404E07D
:104CE000DDE90F1230209047761C0899481E089085
:104CF0000029F5DC08E00A980A990078491C0A9115
:104D0000DDE90F129047761CBBF10001ABF1010BFE
:104D1000F1DC21465046DDE90F2300F019F8064486
:104D20006D1C1FE609280100303132333435363727
:104D300038396162636465660000000030313233E7
:104D40003435363738394142434445460000000087
:104D50002DE9F041044600251E461746880404D478
:104D600005E039462020B0476D1C641EF9D5284661
:104D7000BDE8F0812DE9F041044600251E4690462D
:104D8000C80301D5302700E02027880404D505E0BA
:104D900041463846B0476D1C641EF9D52846BDE82B
:104DA000F0810A68531C0B601070704710B5002822
:104DB00021D0114B0022001F196803E0814203D863
:104DC0000A4649680029F9D152B11368841A9C42F5
:104DD00004D1006818441060104602E0506000E002
:104DE000186039B102680B1A934203D10B681A4458
:104DF00002604968416010BD58000020F0B50B30DA
:104E0000154D20F007010024144A0FE003688B427F
:104E10000BD38B4205D95E1A43184768C3E9006774
:104E200000E04368136002C004E0021D106800281F
:104E3000ECD12046002802D1286808B10020F0BD3E
:104E4000064A07481060074A121A22F00702C0E912
:104E5000002401202860D7E75C00002058000020D3
:104E6000FC030020F80900202DE9F04D16460F46FE
:104E70000546020094B01C4621F0004123F000409A
:104E800014BF4FF0010C4FF0000C0CEB470CFE4B25
:104E90000CEB03084FEA630CE0452DD35FEA0608EC
:104EA00018BF4FF0010808EB44089844F74B9845A9
:104EB00022D3F74B50EA060C02D09F4205D14AB9E3
:104EC00014B000201946BDE8F08D002A08BF4FF04D
:104ED000000C01D04FF0010C0CEB470313F5001F41
:104EE0000AD8002E14BF4FF0010C4FF0000C0CEB51
:104EF000440313F5001F08D914B032462346284650
:104F00003946BDE8F04DFFF710B9DFF888B34FF030
:104F1000000A002FB8BF584523DADF4B9842A8BFDC
:104F20004FF0020A1DDADA4B83421ADCDB4B03EB4B
:104F30002053142B08DDC3F1340C26FA0CF303FACA
:104F40000CFCB4450DD108E05EB9C3F1140C20FA95
:104F50000CF303FA0CFC844503D103F00103C3F105
:104F6000020A51EA020321D1002C1FDA002F18BFD8
:104F7000BAF1020F02D0BAF1010F0BD00220FFF7F5
:104F8000DDFC14B00022BDE8F04D13461046C049C8
:104F9000FFF71EBB0220FFF7D1FC14B02A463B46A8
:104FA000BDE8F04D0020BA49FFF712BB33006DD1C8
:104FB000584525D107F1804010F5801001BF002A27
:104FC0000020B34914B008BFBDE8F08DB048884256
:104FD00007DC002CA1BF1846214614B0BDE8F08DB7
:104FE00007E0002CBFBF184684F0004114B0BDE8B4
:104FF000F08DAB497944D1E9000114B0BDE8F08DE2
:10500000DFF88CC2604526D1002C1FDA19B1594552
:1050100013D1DAB90AE0002A40F0DA829D4A394613
:1050200014B0002062F31E01BDE8F08D0020394667
:1050300014B060F31E01BDE8F08D07DA14B03B46F2
:10504000BDE8F04D00206146FFF7C2BA14B010462B
:105050003946BDE8F08D594518DAB4F1804F0DD0CE
:10506000A4F10053B3F1FF5310D13B1E0EDB14B07B
:105070001046BDE8F04D194600F0E6BB3B4614B0C3
:105080001046BDE8F04D1946FFF730BA27F000434F
:10509000A2BBE1B1594538D1002F06DD002CA1BFDC
:1050A0000020594614B0BDE8F08D002F01DD002C22
:1050B0001FDB002F16DA002C14DBBAF1010F4FF0C2
:1050C000000014BF7349774914B0BDE8F08DBAF100
:1050D000020F18BF002F0CD0BAF1010F09D1002F19
:1050E00007DA0CE0002FB8BF002C0EDABAF1010F7E
:1050F00005D0002014B00146BDE8F08D05E014B0E5
:1051000000204FF00041BDE8F08D4FF0010C0CEB9A
:10511000E7720D9252EA0A020BD0634A90427DDD9B
:10512000624B634A984216DD8A420EDB002C1CDB80
:105130002CE00120FFF702FC14B00022BDE8F04D86
:10514000134610461146FFF743BA5148884202DC25
:10515000002C0ADC1AE0914202DA002C16DA04E094
:105160004B4B99421EDD002C10DD0220FFF7E6FBC1
:1051700040F2013200204FF0E041FFF798FA454A33
:1051800014B061F31E021146BDE8F08D0220FFF756
:10519000D5FBFFF7BBFB3E4A14B061F31E0211467C
:1051A000BDE8F08D002228463946FFF75FF8054636
:1051B00088466FF00102FFF77AFA4FF055323D4B07
:1051C000FFF757F82A464346FFF790F900223A4B7B
:1051D000FFF74FF807468B462A46434610461946C6
:1051E000FFF784F93A465B46FFF780F909910C9086
:1051F0004FF0C042314B28464146FFF777F907464A
:105200008B462F4A2D4B09990C98FFF76FF9CDE982
:1052100001102C4A2C4B2846414600E019E0FFF7CC
:1052200065F9DDE90132FFF721F83A465B46059161
:105230000890FEF77AFF002588463A465B462846E6
:10524000FFF714F8059B089AFFF713F8024600F0E1
:1052500076B90020B1F5801F07DA352228461946B5
:10526000FFF725FA05466FF0340000EB2150A0F25D
:10527000FF300190C1F3130040F07F6141F04051D5
:1052800002911249884223E0FFFF1F00FFFF0F0039
:105290000000F03F0000F07F0000404301FCFFFFF2
:1052A000785200000000F0FF0000E0410000F043F1
:1052B000FFFFEF3F5555D53F0000E03F4715F73F53
:1052C000FE822B6544DF5DF80BAE543E8E980300E2
:1052D000D8BF4FF0000B0EDDFE498142C8BF4FF032
:1052E000010B08DC01984FF0000B401C0190029864
:1052F000A0F580100290F8480299784400EBCB00AA
:105300000B911090D0E900232846FEF7AFFF0090E4
:1053100010980791D0E9002328460B99FEF705FF66
:1053200002460B460020ED49FFF752F905910B4666
:105330000246089007990098FFF7D8F80690E848C9
:10534000884600277844029900680E904FF000507C
:1053500040EA610000EB8B4000F5002110980291BB
:10536000D0E900230E98FEF781FF2A460B9BFEF73B
:1053700080FF3A464346FFF7B9F805460B91384699
:105380004146029B0E9AFFF7B1F8079B009AFEF781
:1053900070FF2A460B9BFEF769FF059B089AFFF7F3
:1053A000A5F80B911090069A434610461946FFF750
:1053B0009DF805460246CB480B46009106217844ED
:1053C000FFF74EFA009B2A460291089010461946B4
:1053D000FFF78CF8029B089AFFF788F805460591BD
:1053E000434638461946069AFEF79FFE0B9B109AD5
:1053F000FFF77CF82A46059BFEF797FE3A464346A0
:105400000591089010461946FFF770F80022B64B38
:1054100000910C90FEF789FE059B089AFEF785FE29
:105420000D463A46B04B3846FEF720FF009B0C9ADB
:10543000FEF71CFF059B089AFEF71BFF11913A46E9
:105440000C902B4610464146FFF750F8079100900C
:105450004346069A11990C98FFF748F88046039145
:105460002B463A460B991098FFF740F84246039BAB
:10547000FEF75BFE059180460B46024607990098B1
:10548000FEF753FE00200F460546079B009AFEF7E5
:10549000EDFE4246059BFEF7ECFE804609914FF07B
:1054A0006042924B28463946FFF720F8009102905F
:1054B0008F4A8E4B40460999FFF718F880460391B2
:1054C0008C4A8D4B28463946FFF710F84246039B1D
:1054D000FEF72BFE894A7A4402EBCB03D3E9002383
:1054E000FEF723FE069003910198FEF7C5FE0746DE
:1054F000DDE902030591069A0099FEF716FE804A3F
:105500007A4402EBCB0BDBE90023FEF70EFE3A46B2
:10551000059BFEF70AFE002588463A462846059B6D
:10552000FEF7A4FEDBE90023FEF7A0FE009B029A33
:10553000FEF79CFE039B069AFEF79BFE02460020A8
:1055400006900D98654FAAF10103184301D16D4FE4
:10555000069000200B46009030462146FEF7C6FF1D
:1055600082468B46234630461946009AFEF77EFE59
:105570002A464346FEF7BAFF52465B46FEF7D5FD84
:1055800006468A462A46434621460098FEF7AEFF65
:1055900004460D4632465346FEF7C7FD5A4A8B462F
:1055A000914226DBABEB020353EA000210D1224604
:1055B0002B46FEF75BFE80460591544A544B30461D
:1055C0005146FEF7B2FD4246059BFFF787F830D201
:1055D0000220FFF7B3F940F2013200204FF0E04122
:1055E000FFF765F80A46394614B062F31E01BDE8BC
:1055F000F08D484B2BF000429A421AD3464A0BEBEF
:10560000020353EA000208D122462B46FEF72EFE83
:1056100032465346FFF762F80BD80220FFF78EF9A7
:10562000FFF774F90A46394614B062F31E01BDE86B
:10563000F08D2BF000403949394A01EB20514FF0F1
:105640000008824223DA481C4FF4801121FA00F04E
:105650005844344AC0F30A517A44334BA1F2FF3123
:10566000CB4020EA0303C0F3130040F4801CC1F1D7
:10567000140012682CFA00F8BBF1000FB8BFC8F193
:10568000000820462946FEF7F1FD04460D46224655
:105690002B4630465146FEF748FD4FF0000B5A4668
:1056A000224B58460591FEF721FF00900791204AB2
:1056B000204B58460599FEF719FF049102902246A7
:1056C0002B4658460599FEF7D1FD32465346FEF764
:1056D000D0FD31E07AB60B00EA4E00000000F03F4A
:1056E000284F0000564E00000000084009C7EE3F5A
:1056F000FD033ADCF5015B14E02F3EBE2E4D0000A9
:10570000F44C00000000F0BF00009040FE822B65CA
:105710004715973C00CC904000346F3F01FCFFFFE1
:105720000000E03F144C0000FFFF0F00432EE63F57
:10573000396CA80C615C20BE3F4A404BFEF7D6FE98
:10574000049B029AFEF7F1FC06468A46079B009AE4
:10575000FEF7EBFC04460D46079B009AFEF786FD1C
:1057600032465346FEF785FD064622462B460991F2
:1057700010461946FEF7BAFE8346024630488A466E
:105780000B4605217844FFF76BF85A465346FEF75F
:10579000ADFE22462B46FEF76CFD82468B46324616
:1057A00020462946099BFEF7A1FE3246099BFEF7DB
:1057B000BCFC0591089000224FF0804350465946AA
:1057C000FEF754FD0646009152465B4620462946A8
:1057D000FEF78CFE3246009BFEF7FAFE059B089A08
:1057E000FEF744FD22462B46FEF740FD0022154BF6
:1057F000FEF73FFD0D46044601EB08510815002851
:1058000010DC424620462946FEF751FFFFF710F80C
:10581000042808BFFFF77AF8424620462946FEF7DB
:1058200046FF044606980B4614B022463946BDE8AA
:10583000F04DFEF75BBE0000EF39FAFE422EE63F68
:10584000C04A00000000F03F2DE9F04106460F4637
:10585000FEF778FF04000D4618BF0120284320F012
:105860000040C0F17F6000F1E040C00F0ED0301C5E
:1058700018BF0120384320F00040C0F17F6000F1E4
:10588000E040C00F04BF0120FFF758F8204629462A
:10589000BDE8F081000000000000000000000000F2
:1058A00000000000000000000000000000F80003FD
:1058B00086000703000E01800C01C01C00C0180008
:1058C000C03800E03800E038006070007070007090
:1058D00070007070007070007070007070007070F8
:1058E0000070700070700070700070700070380090
:1058F000603800E03800E01800C01C00C00C0180D7
:105900000E018006030003860000F800000000007E
:105910000000000000000000000000000000000087
:105920000000000000000000000000000000000077
:10593000000000000000000000000000000800005F
:10594000180000380007F800003800003800003860
:10595000000038000038000038000038000038002F
:10596000003800003800003800003800003800001F
:1059700038000038000038000038000038000038D7
:1059800000003800003800003800003800003800FF
:10599000003800003800007C0007FFC00000000055
:1059A00000000000000000000000000000000000F7
:1059B00000000000000000000000000000000000E7
:1059C00000000000000000000000000000FC0003D8
:1059D00007000C03801801C01801C03800E038002F
:1059E000E03800E03C00E03C00E01C00E00001C0CA
:1059F0000001C0000380000380000700000E0000CB
:105A00001C0000380000700000E00001C0000380AE
:105A1000000300000600200C002018006030006029
:105A20002000C07FFFC07FFFC07FFFC000000000DC
:105A30000000000000000000000000000000000066
:105A40000000000000000000000000000000000056
:105A500000000000000000000000000000FC000347
:105A600007000603800C01C01C01C01C00E01E00E2
:105A7000E01E00E00E00E00000E00000C00001C0F9
:105A8000000180000300000E0000F800000F00007D
:105A900001800000C00000E0000060000070000015
:105AA000701800703C00703C00703C00603800E0F2
:105AB0001800C00C018006070001FC000000000077
:105AC00000000000000000000000000000000000D6
:105AD00000000000000000000000000000000000C6
